{"contracts/GoldClob.sol":{"GoldClob":{"abi":[{"type":"constructor","inputs":[{"name":"_treasury","type":"address","internalType":"address"},{"name":"_marketMaker","type":"address","internalType":"address"}],"stateMutability":"nonpayable"},{"type":"receive","stateMutability":"payable"},{"type":"function","name":"MAX_FEE_BPS","inputs":[],"outputs":[{"name":"","type":"uint256","internalType":"uint256"}],"stateMutability":"view"},{"type":"function","name":"admin","inputs":[],"outputs":[{"name":"","type":"address","internalType":"address"}],"stateMutability":"view"},{"type":"function","name":"bestAsks","inputs":[{"name":"","type":"uint256","internalType":"uint256"}],"outputs":[{"name":"","type":"uint16","internalType":"uint16"}],"stateMutability":"view"},{"type":"function","name":"bestBids","inputs":[{"name":"","type":"uint256","internalType":"uint256"}],"outputs":[{"name":"","type":"uint16","internalType":"uint16"}],"stateMutability":"view"},{"type":"function","name":"cancelOrder","inputs":[{"name":"matchId","type":"uint256","internalType":"uint256"},{"name":"orderId","type":"uint64","internalType":"uint64"},{"name":"","type":"uint16","internalType":"uint16"}],"outputs":[],"stateMutability":"nonpayable"},{"type":"function","name":"claim","inputs":[{"name":"matchId","type":"uint256","internalType":"uint256"}],"outputs":[],"stateMutability":"nonpayable"},{"type":"function","name":"clearGarbage","inputs":[{"name":"matchId","type":"uint256","internalType":"uint256"},{"name":"isBuy","type":"bool","internalType":"bool"},{"name":"price","type":"uint16","internalType":"uint16"},{"name":"maxOrders","type":"uint256","internalType":"uint256"}],"outputs":[],"stateMutability":"nonpayable"},{"type":"function","name":"createMatch","inputs":[],"outputs":[{"name":"","type":"uint256","internalType":"uint256"}],"stateMutability":"nonpayable"},{"type":"function","name":"feeBps","inputs":[],"outputs":[{"name":"","type":"uint256","internalType":"uint256"}],"stateMutability":"view"},{"type":"function","name":"marketMaker","inputs":[],"outputs":[{"name":"","type":"address","internalType":"address"}],"stateMutability":"view"},{"type":"function","name":"matches","inputs":[{"name":"","type":"uint256","internalType":"uint256"}],"outputs":[{"name":"status","type":"uint8","internalType":"enum GoldClob.MatchStatus"},{"name":"winner","type":"uint8","internalType":"enum GoldClob.Side"},{"name":"yesPool","type":"uint256","internalType":"uint256"},{"name":"noPool","type":"uint256","internalType":"uint256"}],"stateMutability":"view"},{"type":"function","name":"nextMatchId","inputs":[],"outputs":[{"name":"","type":"uint256","internalType":"uint256"}],"stateMutability":"view"},{"type":"function","name":"nextOrderId","inputs":[],"outputs":[{"name":"","type":"uint64","internalType":"uint64"}],"stateMutability":"view"},{"type":"function","name":"orderQueues","inputs":[{"name":"matchId","type":"uint256","internalType":"uint256"},{"name":"isBuy","type":"bool","internalType":"bool"},{"name":"price","type":"uint16","internalType":"uint16"}],"outputs":[{"name":"head","type":"uint64","internalType":"uint64"},{"name":"tail","type":"uint64","internalType":"uint64"}],"stateMutability":"view"},{"type":"function","name":"orders","inputs":[{"name":"","type":"uint64","internalType":"uint64"}],"outputs":[{"name":"id","type":"uint64","internalType":"uint64"},{"name":"price","type":"uint16","internalType":"uint16"},{"name":"isBuy","type":"bool","internalType":"bool"},{"name":"maker","type":"address","internalType":"address"},{"name":"amount","type":"uint128","internalType":"uint128"},{"name":"filled","type":"uint128","internalType":"uint128"},{"name":"matchId","type":"uint256","internalType":"uint256"}],"stateMutability":"view"},{"type":"function","name":"placeOrder","inputs":[{"name":"matchId","type":"uint256","internalType":"uint256"},{"name":"isBuy","type":"bool","internalType":"bool"},{"name":"price","type":"uint16","internalType":"uint16"},{"name":"amount","type":"uint256","internalType":"uint256"}],"outputs":[],"stateMutability":"payable"},{"type":"function","name":"positions","inputs":[{"name":"","type":"uint256","internalType":"uint256"},{"name":"","type":"address","internalType":"address"}],"outputs":[{"name":"yesShares","type":"uint256","internalType":"uint256"},{"name":"noShares","type":"uint256","internalType":"uint256"}],"stateMutability":"view"},{"type":"function","name":"resolveMatch","inputs":[{"name":"matchId","type":"uint256","internalType":"uint256"},{"name":"winner","type":"uint8","internalType":"enum GoldClob.Side"}],"outputs":[],"stateMutability":"nonpayable"},{"type":"function","name":"setFeeConfig","inputs":[{"name":"tradeTreasuryFeeBps_","type":"uint256","internalType":"uint256"},{"name":"tradeMarketMakerFeeBps_","type":"uint256","internalType":"uint256"},{"name":"winningsMarketMakerFeeBps_","type":"uint256","internalType":"uint256"}],"outputs":[],"stateMutability":"nonpayable"},{"type":"function","name":"tradeMarketMakerFeeBps","inputs":[],"outputs":[{"name":"","type":"uint256","internalType":"uint256"}],"stateMutability":"view"},{"type":"function","name":"tradeTreasuryFeeBps","inputs":[],"outputs":[{"name":"","type":"uint256","internalType":"uint256"}],"stateMutability":"view"},{"type":"function","name":"treasury","inputs":[],"outputs":[{"name":"","type":"address","internalType":"address"}],"stateMutability":"view"},{"type":"function","name":"winningsMarketMakerFeeBps","inputs":[],"outputs":[{"name":"","type":"uint256","internalType":"uint256"}],"stateMutability":"view"},{"type":"event","name":"FeeConfigUpdated","inputs":[{"name":"tradeTreasuryFeeBps","type":"uint256","indexed":false,"internalType":"uint256"},{"name":"tradeMarketMakerFeeBps","type":"uint256","indexed":false,"internalType":"uint256"},{"name":"winningsMarketMakerFeeBps","type":"uint256","indexed":false,"internalType":"uint256"}],"anonymous":false},{"type":"event","name":"MatchCreated","inputs":[{"name":"matchId","type":"uint256","indexed":true,"internalType":"uint256"}],"anonymous":false},{"type":"event","name":"MatchResolved","inputs":[{"name":"matchId","type":"uint256","indexed":true,"internalType":"uint256"},{"name":"winner","type":"uint8","indexed":false,"internalType":"enum GoldClob.Side"}],"anonymous":false},{"type":"event","name":"OrderCancelled","inputs":[{"name":"matchId","type":"uint256","indexed":true,"internalType":"uint256"},{"name":"orderId","type":"uint64","indexed":true,"internalType":"uint64"}],"anonymous":false},{"type":"event","name":"OrderMatched","inputs":[{"name":"matchId","type":"uint256","indexed":true,"internalType":"uint256"},{"name":"makerOrderId","type":"uint64","indexed":false,"internalType":"uint64"},{"name":"takerOrderId","type":"uint64","indexed":false,"internalType":"uint64"},{"name":"matchedAmount","type":"uint256","indexed":false,"internalType":"uint256"},{"name":"price","type":"uint16","indexed":false,"internalType":"uint16"}],"anonymous":false},{"type":"event","name":"OrderPlaced","inputs":[{"name":"matchId","type":"uint256","indexed":true,"internalType":"uint256"},{"name":"orderId","type":"uint64","indexed":true,"internalType":"uint64"},{"name":"maker","type":"address","indexed":true,"internalType":"address"},{"name":"isBuy","type":"bool","indexed":false,"internalType":"bool"},{"name":"price","type":"uint16","indexed":false,"internalType":"uint16"},{"name":"amount","type":"uint256","indexed":false,"internalType":"uint256"}],"anonymous":false},{"type":"error","name":"FailedCall","inputs":[]},{"type":"error","name":"InsufficientBalance","inputs":[{"name":"balance","type":"uint256","internalType":"uint256"},{"name":"needed","type":"uint256","internalType":"uint256"}]},{"type":"error","name":"ReentrancyGuardReentrantCall","inputs":[]}],"userdoc":{},"devdoc":{},"evm":{"bytecode":{"object":"60e0346101e857601f61203d38819003918201601f19168301916001600160401b038311848410176101ec5780849260409485528339810103126101e857610052602061004b83610200565b9201610200565b60017f9b779b17422d0df92223018b32b4d1fa46e071723d6817e2486d003becc55f008190556003819055600580546001600160401b0319169091179055906001600160a01b038116156101a3576001600160a01b038216156101545760805260a0523360c05260645f55606460015560c86002557f7db0317b48d5cfa60fe5406abab969900e8dfb1ecbe177a05af0595780cb85c76060604051606481526064602082015260c86040820152a1604051611e28908161021582396080518181816107ed0152610c8a015260a051818181610c51015281816115a10152611a08015260c05181818161013a0152818161049b015281816116f901526118540152f35b60405162461bcd60e51b815260206004820152602160248201527f496e76616c6964206d61726b6574206d616b6572207a65726f206164647265736044820152607360f81b6064820152608490fd5b60405162461bcd60e51b815260206004820152601d60248201527f496e76616c6964207472656173757279207a65726f20616464726573730000006044820152606490fd5b5f80fd5b634e487b7160e01b5f52604160045260245ffd5b51906001600160a01b03821682036101e85756fe608080604052600436101561001c575b50361561001a575f80fd5b005b5f3560e01c9081631f21f9af146119f6575080631fc6f9ad1461183457806320d54ecf146116d357806324a9d853146116ab5780632a58b330146116855780632ebe714f14611668578063379607f5146114e7578063442c28b91461146a5780634768d4ef146114075780634befb8611461081c57806361d027b3146107d8578063830be338146107bb57806385489dc81461079f5780639fa5d00f146105c9578063a0cc641a14610485578063a469dffa146103eb578063b5193050146103bd578063c52352411461022c578063c5adf7c91461020f578063d55be8c6146101f3578063e0773d11146101c5578063e684d7181461016d5763f851a44014610125575f61000f565b34610169575f366003190112610169576040517f00000000000000000000000000000000000000000000000000000000000000006001600160a01b03168152602090f35b5f80fd5b34610169576040366003190112610169576024356001600160a01b0381168103610169576004355f52600760205260405f209060018060a01b03165f526020526040805f206001815491015482519182526020820152f35b34610169576020366003190112610169576004355f526009602052602061ffff60405f205416604051908152f35b34610169575f3660031901126101695760206040516127108152f35b34610169575f366003190112610169576020600354604051908152f35b346101695761023a36611a66565b91610243611c31565b835f526004602052610267600160ff60405f20541661026181611a48565b14611b1c565b835f52600860205260405f20905f146103b5576001905b60ff82165f5260205260405f2061ffff83165f5260205260405f20925f9060018501915b85546001600160401b038082169160401c168110806103ac575b1561039f576001600160401b03165f52826020526001600160401b0360405f2054165f526006602052600160405f2001546001600160801b0381169060801c10155f146103845761037f90875f52600860205260405f2060ff86165f5260205260405f2061ffff87165f5260205260405f206001600160401b0380825416165f526001810160205260405f206001600160401b031981541690556001600160401b0361036a81835416611c14565b166001600160401b0319825416179055611bc6565b6102a2565b505050505050505b60015f516020611dd35f395f51905f5255005b505050505050505061038c565b508282106102bc565b60029061027e565b34610169576020366003190112610169576004355f52600a602052602061ffff60405f205416604051908152f35b34610169576020366003190112610169576004356001600160401b038116809103610169575f52600660205260e060405f208054906002600182015491015490604051926001600160401b038116845261ffff8160401c16602085015260ff8160501c161515604085015260018060a01b039060581c1660608401526001600160801b038116608084015260801c60a083015260c0820152f35b34610169575f366003190112610169576104c9337f00000000000000000000000000000000000000000000000000000000000000006001600160a01b031614611a98565b6003546104d581611bc6565b6003556040519060808201918083106001600160401b038411176105b5576020926040526001815260028382015f8152604083015f815261055260608501925f8452865f526004885260405f20955161052d81611a48565b61053681611a48565b60ff801988541691161786555161054c81611a48565b85611ad0565b51600184015551910155805f526009825260405f2061ffff198154169055805f52600a825260405f206103e861ffff1982541617905560405190807f029c42c1ae2efa2f406e0681e1f940dde3568cd96a1ecf3715dc1191f0d3edbc5f80a28152f35b634e487b7160e01b5f52604160045260245ffd5b3461016957606036600319011261016957600435602435906001600160401b038216809203610169576105fa611a37565b50610603611c31565b5f828152600660205260409020805460581c6001600160a01b0316330361076e578160028201540361073b57600181018054906001600160801b038260801c921680831015610705576103e893610688826001600160801b0361066c6106a39761ffff96611bd4565b1694906001600160801b0382549181199060801b169116179055565b5460ff8160501c165f146106f25760401c81165b1690611afc565b04806106e2575b507f051c886b3e3b1ec09c73063f845a2f371275fb3d788914ead98645e3996962e25f80a360015f516020611dd35f395f51905f5255005b6106ec9033611d3b565b826106aa565b816107009160401c16611b59565b61069c565b60405162461bcd60e51b815260206004820152600e60248201526d105b1c9958591e48199a5b1b195960921b6044820152606490fd5b60405162461bcd60e51b815260206004820152600b60248201526a0aee4dedcce40dac2e8c6d60ab1b6044820152606490fd5b60405162461bcd60e51b81526020600482015260096024820152682737ba1036b0b5b2b960b91b6044820152606490fd5b34610169575f3660031901126101695760205f54604051908152f35b34610169575f366003190112610169576020600254604051908152f35b34610169575f366003190112610169576040517f00000000000000000000000000000000000000000000000000000000000000006001600160a01b03168152602090f35b61082536611a66565b929091610830611c31565b815f52600460205261084e600160ff60405f20541661026181611a48565b61ffff8316801515806113fc575b156113c7578415611391576001600160801b03851161135a5781156113465761088a61ffff855b1686611afc565b936103e88506611301576103e885049586156112cd576108d56108c7976108d062989680806108ba5f548c611afc565b049a8b9a60015490611afc565b04998a92611aef565b611aef565b80341061127e576108e69034611b0f565b81975f975f93875f14610fa757885f9a989a52600a60205261ffff60405f205416975b8b151580610f99575b80610f8a575b80610f80575b15610bcb57895f52600860205260405f2060025f5260205260405f2061ffff8a165f5260205260405f2080546001600160401b038082169160401c168114610b9d5760019d916001600160401b038f92165f52016020526001600160401b0360405f20541690815f52600660205260405f209d8e6109a360ff825460501c1615611b83565b019182546001600160801b0381169060801c1015610b8557908c91816001600160801b03806109da87548060801c93849116611bd4565b16808311610b7b575b50610a2e91610a29610a0086936001600160801b03851690611bf4565b88546001600160801b031660809190911b6fffffffffffffffffffffffffffffffff1916178855565b611b0f565b9f835f52600760205260405f209060018060a01b03905460581c1660018060a01b03165f52602052600160405f2001610a68838254611aef565b9055825f52600760205260405f2060018060a01b0333165f5260205260405f20610a93838254611aef565b90558c8b8d61ffff831610610b21575b50600554604080516001600160401b03948516815293909116602084015282019290925261ffff9091166060820152610b0a939291905f516020611db35f395f51905f529080608081015b0390a2546001600160801b0381169060801c14610b1257611bc6565b995b99610909565b610b1c8a8c611cdb565b611bc6565b610b3b61ffff610b34846103e894611b6d565b1685611afc565b0480610b49575b508b610aa3565b91610aee610b6d5f516020611db35f395f51905f5294610b0a99989796949e611aef565b9c9294959697505091610b42565b9350610a2e6109e3565b509c5050610b9790610b1c8a8c611cdb565b99610b0c565b5050999761ffff1661ffff8114610bb75760010197610b0c565b634e487b7160e01b5f52601160045260245ffd5b509591979398945095989198835f52600a60205261ffff60405f20911661ffff198254161790555b81610cbd575b505050505080610c84575b5080610c4b575b5080610c3b575b5080610c2b5760015f516020611dd35f395f51905f5255005b610c359033611d3b565b8061038c565b610c459033611d3b565b81610c12565b610c7e907f00000000000000000000000000000000000000000000000000000000000000006001600160a01b0316611d3b565b82610c0b565b610cb7907f00000000000000000000000000000000000000000000000000000000000000006001600160a01b0316611d3b565b83610c04565b600554936001600160401b038516946001600160401b03610cdd87611c14565b16906001600160401b031916176005556001600160801b03610cff8488611b0f565b169060405160e081018181106001600160401b038211176105b55760405286815260208101848152604082019883159485159a8b81526060850133815260808601936001600160801b0316845260a0860192835260c08601948b86528c5f52600660205260405f2096516001600160401b03166001600160401b03166001600160401b0319885416178755519186549060ff60501b9051151560501b1691600160581b600160f81b03905160581b169260401b69ffff0000000000000000169060ff60f81b6001600160401b03011617171784556001840191516001600160801b03166001600160801b0319835416178255516001600160801b0316610e1991906001600160801b0382549181199060801b169116179055565b519060020155845f52600860205260405f20815f14610f775760ff60015b165f5260205260405f20835f5260205260405f206001600160401b0380825460401c16165f526001810160205260405f206001600160401b0388166001600160401b0319825416179055805467ffffffffffffffff60401b610ea46001600160401b038360401c16611c14565b60401b169067ffffffffffffffff60401b191617905580610f5e575b15610f1e5750825f52600960205260405f208161ffff198254161790555b604051948552602085015260408401527fcf3f5c02856f5aa6ecb3ef9dde51876fbc40cfc4dd36c4e69407d11c1a8cbae060603394a48480808080610bf9565b80610f45575b15610ede57825f52600a60205260405f208161ffff19825416179055610ede565b50825f52600a60205261ffff60405f2054168110610f24565b50835f52600960205261ffff60405f2054168211610ec0565b60ff6002610e37565b506064811061091e565b506103e861ffff8a1610610918565b508761ffff8a161115610912565b885f9a989a52600960205261ffff60405f205416975b8b151580611270575b80611263575b80611259575b1561122d57895f52600860205260405f2060015f5260205260405f2061ffff8a165f5260205260405f2080546001600160401b038082169160401c1681146112165760019d916001600160401b038f92165f52016020526001600160401b0360405f20541690815f52600660205260405f209d8e61105660ff825460501c16611b83565b019182546001600160801b0381169060801c10156111fe57908c91816001600160801b038061108d87548060801c93849116611bd4565b168083116111f4575b506110b391610a29610a0086936001600160801b03851690611bf4565b9f835f52600760205260405f209060018060a01b03905460581c1660018060a01b03165f5260205260405f206110ea838254611aef565b9055825f52600760205260405f2060018060a01b0333165f52602052600160405f2001611118838254611aef565b90558c8b8d61ffff8316116111a1575b50600554604080516001600160401b03948516815293909116602084015282019290925261ffff909116606082015261118f939291905f516020611db35f395f51905f529080608081015b0390a2546001600160801b0381169060801c1461119757611bc6565b995b99610fbd565b610b1c8a8c611c69565b6111b461ffff610b346103e89385611b6d565b04806111c2575b508b611128565b916111736111e65f516020611db35f395f51905f529461118f99989796949e611aef565b9c92949596975050916111bb565b93506110b3611096565b509c505061121090610b1c8a8c611c69565b99611191565b5050999761ffff168015610bb7575f190197611191565b509591979398945095989198835f52600960205261ffff60405f20911661ffff19825416179055610bf3565b5060648110610fd2565b5061ffff89161515610fcc565b508761ffff8a161015610fc6565b60405162461bcd60e51b815260206004820152602160248201527f496e73756666696369656e74206e61746976652063757272656e63792073656e6044820152601d60fa1b6064820152608490fd5b60405162461bcd60e51b815260206004820152600c60248201526b436f737420746f6f206c6f7760a01b6044820152606490fd5b60405162461bcd60e51b815260206004820152601c60248201527f416d6f756e742f507269636520707265636973696f6e206572726f72000000006044820152606490fd5b61088a61ffff61135586611b59565b610883565b60405162461bcd60e51b815260206004820152600f60248201526e416d6f756e74206f766572666c6f7760881b6044820152606490fd5b60405162461bcd60e51b815260206004820152600e60248201526d125b9d985b1a5908185b5bdd5b9d60921b6044820152606490fd5b60405162461bcd60e51b815260206004820152600d60248201526c496e76616c696420707269636560981b6044820152606490fd5b506103e8811061085c565b34610169576020366003190112610169576004355f526004602052608060405f2080549060ff8083169260081c169060026001820154910154916040519361144e81611a48565b845261145981611a48565b602084015260408301526060820152f35b346101695760603660031901126101695760243580151581036101695761148f611a37565b906004355f52600860205260405f20905f146114de5760ff60015b165f5260205261ffff60405f2091165f526020526040805f20546001600160401b038251918181168352831c166020820152f35b60ff60026114aa565b3461016957602036600319011261016957600435611503611c31565b805f526004602052600260ff60405f20541661151e81611a48565b03611634575f8181526007602090815260408083203384528252808320938352600490915281205490919060081c60ff1661155881611a48565b6001810361160c575090505f815491555b80156115d45761038c9061158d61271061158560025484611afc565b048092611b0f565b908061159b575b5033611d3b565b6115ce907f00000000000000000000000000000000000000000000000000000000000000006001600160a01b0316611d3b565b82611594565b60405162461bcd60e51b815260206004820152601060248201526f4e6f7468696e6720746f20636c61696d60801b6044820152606490fd5b60029061161881611a48565b14611624575b50611569565b60019150015f815491558161161e565b60405162461bcd60e51b815260206004820152600c60248201526b139bdd081c995cdbdb1d995960a21b6044820152606490fd5b34610169575f366003190112610169576020600154604051908152f35b34610169575f3660031901126101695760206001600160401b0360055416604051908152f35b34610169575f3660031901126101695760206116cb5f5460015490611aef565b604051908152f35b3461016957604036600319011261016957600435602435600381101561016957611727337f00000000000000000000000000000000000000000000000000000000000000006001600160a01b031614611a98565b815f526004602052600160ff60405f20541661174281611a48565b036118045761175081611a48565b6001811480156117f1575b156117bb575f828152600460209081526040909120805460ff191660021781557fde1c752173fee6bd3976fb1f165361c647fffc7a33987556b7f54b6a2de08ece92906117a9908290611ad0565b604051906117b681611a48565b8152a2005b60405162461bcd60e51b815260206004820152600e60248201526d24b73b30b634b2103bb4b73732b960911b6044820152606490fd5b506117fb81611a48565b6002811461175b565b60405162461bcd60e51b81526020600482015260086024820152672737ba1037b832b760c11b6044820152606490fd5b3461016957606036600319011261016957604435602435600435611882337f00000000000000000000000000000000000000000000000000000000000000006001600160a01b031614611a98565b61271081116119b1576127108211611974576127106118a18383611aef565b1161192f5761271083116118f2577f7db0317b48d5cfa60fe5406abab969900e8dfb1ecbe177a05af0595780cb85c792606092825f55806001558160025560405192835260208301526040820152a1005b60405162461bcd60e51b81526020600482015260156024820152740aed2dcdcd2dccee640cccaca40e8dede40d0d2ced605b1b6044820152606490fd5b60405162461bcd60e51b815260206004820152601860248201527f546f74616c2074726164652066656520746f6f206869676800000000000000006044820152606490fd5b60405162461bcd60e51b81526020600482015260156024820152740a8e4c2c8ca409a9a40cccaca40e8dede40d0d2ced605b1b6044820152606490fd5b60405162461bcd60e51b815260206004820152601b60248201527f54726164652074726561737572792066656520746f6f206869676800000000006044820152606490fd5b34610169575f366003190112610169577f00000000000000000000000000000000000000000000000000000000000000006001600160a01b03168152602090f35b6044359061ffff8216820361016957565b60031115611a5257565b634e487b7160e01b5f52602160045260245ffd5b608090600319011261016957600435906024358015158103610169579060443561ffff81168103610169579060643590565b15611a9f57565b60405162461bcd60e51b81526020600482015260096024820152682737ba1030b236b4b760b91b6044820152606490fd5b90611ada81611a48565b61ff0082549160081b169061ff001916179055565b91908201809211610bb757565b81810292918115918404141715610bb757565b91908203918211610bb757565b15611b2357565b60405162461bcd60e51b815260206004820152600e60248201526d26b0ba31b4103737ba1037b832b760911b6044820152606490fd5b61ffff166103e8039061ffff8211610bb757565b9061ffff8091169116039061ffff8211610bb757565b15611b8a57565b60405162461bcd60e51b8152602060048201526014602482015273145d595d59481cda59194818dbdc9c9d5c1d195960621b6044820152606490fd5b5f198114610bb75760010190565b906001600160801b03809116911603906001600160801b038211610bb757565b906001600160801b03809116911601906001600160801b038211610bb757565b6001600160401b03166001600160401b038114610bb75760010190565b60025f516020611dd35f395f51905f525414611c5a5760025f516020611dd35f395f51905f5255565b633ee5aeb560e01b5f5260045ffd5b5f52600860205260405f2060015f5260205261ffff60405f2091165f5260205260405f206001600160401b0380825416165f526001810160205260405f206001600160401b031981541690556001600160401b03611cc981835416611c14565b166001600160401b0319825416179055565b5f52600860205260405f2060025f5260205261ffff60405f2091165f5260205260405f206001600160401b0380825416165f526001810160205260405f206001600160401b031981541690556001600160401b03611cc981835416611c14565b814710611d9b5760405160208101908082106001600160401b038311176105b5575f9384938480949381946040525260018060a01b03165af115611d7b57565b3d15611d8c576040513d5f823e3d90fd5b63d6bda27560e01b5f5260045ffd5b504763cf47918160e01b5f5260045260245260445ffdfee00b64442e6da2ddd996fa6a905bea76c618c548d19fa4fa3364fadb293cefe59b779b17422d0df92223018b32b4d1fa46e071723d6817e2486d003becc55f00a26469706673582212206f4f2fea08b152c13cbeb2051e1390989d672752392645562d857333747e861a64736f6c63430008210033","linkReferences":{}},"methodIdentifiers":{"MAX_FEE_BPS()":"d55be8c6","admin()":"f851a440","bestAsks(uint256)":"b5193050","bestBids(uint256)":"e0773d11","cancelOrder(uint256,uint64,uint16)":"9fa5d00f","claim(uint256)":"379607f5","clearGarbage(uint256,bool,uint16,uint256)":"c5235241","createMatch()":"a0cc641a","feeBps()":"24a9d853","marketMaker()":"1f21f9af","matches(uint256)":"4768d4ef","nextMatchId()":"c5adf7c9","nextOrderId()":"2a58b330","orderQueues(uint256,bool,uint16)":"442c28b9","orders(uint64)":"a469dffa","placeOrder(uint256,bool,uint16,uint256)":"4befb861","positions(uint256,address)":"e684d718","resolveMatch(uint256,uint8)":"20d54ecf","setFeeConfig(uint256,uint256,uint256)":"1fc6f9ad","tradeMarketMakerFeeBps()":"2ebe714f","tradeTreasuryFeeBps()":"85489dc8","treasury()":"61d027b3","winningsMarketMakerFeeBps()":"830be338"}}}}}