{"contracts/perps/AgentPerpEngine.sol":{"AgentPerpEngine":{"abi":[{"type":"constructor","inputs":[{"name":"_oracle","type":"address","internalType":"contract SkillOracle"},{"name":"_marginToken","type":"address","internalType":"contract IERC20"},{"name":"_skewScale","type":"uint256","internalType":"uint256"}],"stateMutability":"nonpayable"},{"type":"function","name":"MAX_LEVERAGE","inputs":[],"outputs":[{"name":"","type":"uint256","internalType":"uint256"}],"stateMutability":"view"},{"type":"function","name":"ONE","inputs":[],"outputs":[{"name":"","type":"uint256","internalType":"uint256"}],"stateMutability":"view"},{"type":"function","name":"fundingVelocity","inputs":[],"outputs":[{"name":"","type":"uint256","internalType":"uint256"}],"stateMutability":"view"},{"type":"function","name":"getExecutionPrice","inputs":[{"name":"agentId","type":"bytes32","internalType":"bytes32"},{"name":"sizeDelta","type":"int256","internalType":"int256"}],"outputs":[{"name":"","type":"uint256","internalType":"uint256"}],"stateMutability":"view"},{"type":"function","name":"insuranceFund","inputs":[],"outputs":[{"name":"","type":"uint256","internalType":"uint256"}],"stateMutability":"view"},{"type":"function","name":"liquidate","inputs":[{"name":"agentId","type":"bytes32","internalType":"bytes32"},{"name":"trader","type":"address","internalType":"address"}],"outputs":[],"stateMutability":"nonpayable"},{"type":"function","name":"marginToken","inputs":[],"outputs":[{"name":"","type":"address","internalType":"contract IERC20"}],"stateMutability":"view"},{"type":"function","name":"markets","inputs":[{"name":"","type":"bytes32","internalType":"bytes32"}],"outputs":[{"name":"totalLongOI","type":"uint256","internalType":"uint256"},{"name":"totalShortOI","type":"uint256","internalType":"uint256"},{"name":"currentFundingRate","type":"int256","internalType":"int256"},{"name":"lastUpdateTimestamp","type":"uint256","internalType":"uint256"}],"stateMutability":"view"},{"type":"function","name":"modifyPosition","inputs":[{"name":"agentId","type":"bytes32","internalType":"bytes32"},{"name":"marginDelta","type":"int256","internalType":"int256"},{"name":"sizeDelta","type":"int256","internalType":"int256"}],"outputs":[],"stateMutability":"nonpayable"},{"type":"function","name":"oracle","inputs":[],"outputs":[{"name":"","type":"address","internalType":"contract SkillOracle"}],"stateMutability":"view"},{"type":"function","name":"owner","inputs":[],"outputs":[{"name":"","type":"address","internalType":"address"}],"stateMutability":"view"},{"type":"function","name":"positions","inputs":[{"name":"","type":"bytes32","internalType":"bytes32"},{"name":"","type":"address","internalType":"address"}],"outputs":[{"name":"size","type":"int256","internalType":"int256"},{"name":"margin","type":"uint256","internalType":"uint256"},{"name":"entryPrice","type":"uint256","internalType":"uint256"},{"name":"lastFundingRate","type":"int256","internalType":"int256"}],"stateMutability":"view"},{"type":"function","name":"renounceOwnership","inputs":[],"outputs":[],"stateMutability":"nonpayable"},{"type":"function","name":"skewScale","inputs":[],"outputs":[{"name":"","type":"uint256","internalType":"uint256"}],"stateMutability":"view"},{"type":"function","name":"transferOwnership","inputs":[{"name":"newOwner","type":"address","internalType":"address"}],"outputs":[],"stateMutability":"nonpayable"},{"type":"function","name":"withdrawInsuranceFund","inputs":[{"name":"to","type":"address","internalType":"address"},{"name":"amount","type":"uint256","internalType":"uint256"}],"outputs":[],"stateMutability":"nonpayable"},{"type":"event","name":"InsuranceFundWithdrawn","inputs":[{"name":"to","type":"address","indexed":true,"internalType":"address"},{"name":"amount","type":"uint256","indexed":false,"internalType":"uint256"}],"anonymous":false},{"type":"event","name":"OwnershipTransferred","inputs":[{"name":"previousOwner","type":"address","indexed":true,"internalType":"address"},{"name":"newOwner","type":"address","indexed":true,"internalType":"address"}],"anonymous":false},{"type":"event","name":"PositionLiquidated","inputs":[{"name":"agentId","type":"bytes32","indexed":true,"internalType":"bytes32"},{"name":"trader","type":"address","indexed":true,"internalType":"address"},{"name":"size","type":"int256","indexed":false,"internalType":"int256"},{"name":"liquidationPrice","type":"uint256","indexed":false,"internalType":"uint256"}],"anonymous":false},{"type":"event","name":"PositionOpened","inputs":[{"name":"agentId","type":"bytes32","indexed":true,"internalType":"bytes32"},{"name":"trader","type":"address","indexed":true,"internalType":"address"},{"name":"sizeDelta","type":"int256","indexed":false,"internalType":"int256"},{"name":"executionPrice","type":"uint256","indexed":false,"internalType":"uint256"},{"name":"newSize","type":"int256","indexed":false,"internalType":"int256"},{"name":"margin","type":"uint256","indexed":false,"internalType":"uint256"}],"anonymous":false},{"type":"error","name":"OwnableInvalidOwner","inputs":[{"name":"owner","type":"address","internalType":"address"}]},{"type":"error","name":"OwnableUnauthorizedAccount","inputs":[{"name":"account","type":"address","internalType":"address"}]},{"type":"error","name":"SafeERC20FailedOperation","inputs":[{"name":"token","type":"address","internalType":"address"}]}],"userdoc":{},"devdoc":{},"evm":{"bytecode":{"object":"6101003461021257601f6114dc38819003918201601f19168301916001600160401b03831184841017610216578084926060946040528339810103126102125780516001600160a01b0381169190828103610212576020820151916001600160a01b0383169081840361021257604001519333156101ff575f8054336001600160a01b0319821681178355604051939290916001600160a01b0316907f8be0079c531659141344cd1fd0a4f28419497f9722a3daafe3b4186f6b6457e09080a3156101cc57501561018757821561014d5760805260a05260c05264e8d4a5100060e0526040516112b1908161022b82396080518181816101f001528181610d2a0152610ffc015260a051818181610336015281816104f901528181610603015281816107dc0152610ae9015260c05181818161046a0152610dc3015260e0518181816105680152610ed50152f35b60405162461bcd60e51b8152602060048201526012602482015271496e76616c696420736b6577207363616c6560701b6044820152606490fd5b60405162461bcd60e51b815260206004820152601460248201527f496e76616c6964206d617267696e20746f6b656e0000000000000000000000006044820152606490fd5b62461bcd60e51b815260206004820152600e60248201526d496e76616c6964206f7261636c6560901b6044820152606490fd5b631e4fbdf760e01b5f525f60045260245ffd5b5f80fd5b634e487b7160e01b5f52604160045260245ffdfe60806040526004361015610011575f80fd5b5f3560e01c80631b89f3d41461071457806329d88594146106ae5780633296d9831461058b57806337ed6d8e146105515780635d490351146105285780636685ed87146104e4578063715018a61461048d57806374968a1b146104535780637564912b14610407578063771b51d21461021f5780637dc0d1d0146101db5780638da5cb5b146101b45780639b45ec9714610191578063b790230314610174578063c2ee3a08146101525763f2fde38b146100c9575f80fd5b3461014e57602036600319011261014e576100e2610ba2565b6100ea6111b7565b6001600160a01b0316801561013b575f80546001600160a01b03198116831782556001600160a01b0316907f8be0079c531659141344cd1fd0a4f28419497f9722a3daafe3b4186f6b6457e09080a3005b631e4fbdf760e01b5f525f60045260245ffd5b5f80fd5b3461014e575f36600319011261014e576020604051670de0b6b3a76400008152f35b3461014e575f36600319011261014e576020600354604051908152f35b3461014e575f36600319011261014e576020674563918244f40000604051908152f35b3461014e575f36600319011261014e575f546040516001600160a01b039091168152602090f35b3461014e575f36600319011261014e576040517f00000000000000000000000000000000000000000000000000000000000000006001600160a01b03168152602090f35b3461014e57604036600319011261014e5760043561023b610b8c565b9061024581610e8f565b805f52600260205260405f2060018060a01b0383165f5260205260405f2091825480156103d457825f52600160205260405f20915f821392835f146103cb5761029661029084610bdf565b86610d0c565b9560028101936102b28554896102ab84610f10565b9184610f23565b946001830195600a6102c688549283610c09565b91051315610393575f60409661035a9582947fa60e06241bd31f87f24f911870fde2148192f08dab3ceff96741c9cbc8d500a39a8414610374575061030d86548254610bef565b90555b81815495555555610330610328606483048093610bef565b600354610bfc565b600355337f0000000000000000000000000000000000000000000000000000000000000000610f70565b81515f815260208101959095526001600160a01b031693a3005b600161038261038c92610bdf565b9201918254610bef565b9055610310565b60405162461bcd60e51b815260206004820152601060248201526f4e6f74206c6971756964617461626c6560801b6044820152606490fd5b61029683610290565b60405162461bcd60e51b815260206004820152600b60248201526a2737903837b9b4ba34b7b760a91b6044820152606490fd5b3461014e57602036600319011261014e576004355f526001602052608060405f208054906001810154906003600282015491015491604051938452602084015260408301526060820152f35b3461014e575f36600319011261014e5760206040517f00000000000000000000000000000000000000000000000000000000000000008152f35b3461014e575f36600319011261014e576104a56111b7565b5f80546001600160a01b0319811682556001600160a01b03167f8be0079c531659141344cd1fd0a4f28419497f9722a3daafe3b4186f6b6457e08280a3005b3461014e575f36600319011261014e576040517f00000000000000000000000000000000000000000000000000000000000000006001600160a01b03168152602090f35b3461014e57604036600319011261014e576020610549602435600435610d0c565b604051908152f35b3461014e575f36600319011261014e5760206040517f00000000000000000000000000000000000000000000000000000000000000008152f35b3461014e57604036600319011261014e576105a4610ba2565b602435906105b06111b7565b6001600160a01b038116918215610675576003549080821061063057610627817ff921e3865f3b6c74a325ab75d54571c15d97e71f64b87607b421235a8f22c2ec946105fe82602096610bef565b6003557f0000000000000000000000000000000000000000000000000000000000000000610f70565b604051908152a2005b60405162461bcd60e51b815260206004820152601b60248201527f496e73756666696369656e7420696e737572616e63652066756e6400000000006044820152606490fd5b60405162461bcd60e51b8152602060048201526011602482015270125b9d985b1a59081c9958da5c1a595b9d607a1b6044820152606490fd5b3461014e57604036600319011261014e576106c7610b8c565b6004355f52600260205260405f209060018060a01b03165f52602052608060405f208054906001810154906003600282015491015491604051938452602084015260408301526060820152f35b3461014e57606036600319011261014e5760443560043560243561073782610e8f565b5f81139081610ae7575b61074b8484610d0c565b91835f52600260205260405f2060018060a01b0333165f5260205260405f2091845f52600160205260405f209184845460028601908154908a5f8213805f14610ac057610799838a54610bef565b89555b816108f7575b5050505050505f82125f146108d557506107bb90610bdf565b600183019081549181831061089a576107d78261080094610bef565b9055337f0000000000000000000000000000000000000000000000000000000000000000610f70565b81545f81131561086a575061081782548254610bfc565b90555b600181549101549161082d838386610fc8565b6040519485526020850152604084015260608301527ff3cd735e5cc5de64516e8a4249790c157e5da9197696f5d7ebc35fb3f1850ff560803393a3005b5f8112610879575b505061081a565b600161088761089192610bdf565b9201918254610bfc565b90558480610872565b60405162461bcd60e51b815260206004820152601360248201527224b739bab33334b1b4b2b73a1036b0b933b4b760691b6044820152606490fd5b6108e0575b50610800565b6108ef60018401918254610bfc565b9055856108da565b8261090e575088555050555b848880808a816107a2565b8080969293949690610ab7575b8015610aa4575b1561097f5750506109739061096d610966610978959661094186610f10565b9061095f61094e86610f10565b956109598785610bfc565b98610c09565b8d55610bb8565b918b610bb8565b90610bfc565b610c24565b9055610903565b916109aa90610998610992869496610f10565b91610f10565b80821015610a9d57505b848784610f23565b5f811315610a2d576109c160018b01918254610bfc565b90555b6109ce8c82610c09565b808a5590816109e457505050505f915055610903565b82610a23575b8215610a07575b5050156109ff575055610903565b915055610903565b5f13915081610a19575b508b806109f1565b5f9150128b610a11565b5f821392506109ea565b610a38919350610bdf565b91600189018054848110610a58578b94610a5191610bef565b90556109c4565b60405162461bcd60e51b815260206004820152601760248201527f4c6971756964617461626c652064756520746f20504e4c0000000000000000006044820152606490fd5b90506109a2565b505f8412801561092257505f8312610922565b505f831361091b565b5f83121561079c57610ad183610bdf565b610ae060018b01918254610bef565b905561079c565b7f00000000000000000000000000000000000000000000000000000000000000006040516323b872dd60e01b5f5233600452306024528260445260205f60648180865af19060015f5114821615610b6b575b6040525f60605215610b4b5750610741565b635274afe760e01b5f9081526001600160a01b0391909116600452602490fd5b906001811516610b8357823b15153d15161690610b39565b503d5f823e3d90fd5b602435906001600160a01b038216820361014e57565b600435906001600160a01b038216820361014e57565b81810292918115918404141715610bcb57565b634e487b7160e01b5f52601160045260245ffd5b600160ff1b8114610bcb575f0390565b91908203918211610bcb57565b91908201809211610bcb57565b9190915f8382019384129112908015821691151617610bcb57565b8115610c2e570490565b634e487b7160e01b5f52601260045260245ffd5b6080810190811067ffffffffffffffff821117610c5e57604052565b634e487b7160e01b5f52604160045260245ffd5b90601f8019910116810190811067ffffffffffffffff821117610c5e57604052565b81810392915f138015828513169184121617610bcb57565b8115610c2e57600160ff1b81145f19831416610bcb570590565b90670de0b6b3a7640000820291808305670de0b6b3a76400001490151715610bcb57565b81810292915f8212600160ff1b821416610bcb578184051490151715610bcb57565b604051630ca625e360e31b81526004810182905290916020826024817f00000000000000000000000000000000000000000000000000000000000000006001600160a01b03165afa918215610e84575f92610e4e575b50610dbc610dc191610de893945f5260016020526002610db460405f20604051610d8b81610c42565b815490818152606060036001850154948560208501528781015460408501520154910152610c94565b910590610c09565b610cc6565b7f000000000000000000000000000000000000000000000000000000000000000090610cac565b5f8112610e105790670de0b6b3a7640000610e06610e0d9383610bb8565b0490610bfc565b90565b610e1990610bdf565b90670de0b6b3a76400008210610e3157600a91500490565b670de0b6b3a7640000610e47610e0d9383610bb8565b0490610bef565b91506020823d602011610e7c575b81610e6960209383610c72565b8101031261014e57905190610dbc610d62565b3d9150610e5c565b6040513d5f823e3d90fd5b5f52600160205260405f206003810190610eaa825442610bef565b80610eb457505050565b6002610eff610dc1610f0993610efa610ed38754600189015490610c94565b7f000000000000000000000000000000000000000000000000000000000000000090610cea565b610cea565b9201918254610c09565b9055429055565b5f8112610f1a5790565b610e0d90610bdf565b929083158015610f68575b610f60575f670de0b6b3a76400009413610f5357610f4f92610efa91610c94565b0590565b610efa90610f4f93610c94565b505050505f90565b508115610f2e565b916040519163a9059cbb60e01b5f5260018060a01b031660045260245260205f60448180865af19060015f5114821615610fb0575b60405215610b4b5750565b906001811516610b8357823b15153d15161690610fa5565b919080156111b257811561116d57610fdf90610f10565b604051630ca625e360e31b815260048101849052926020846024817f00000000000000000000000000000000000000000000000000000000000000006001600160a01b03165afa908115610e84575f91611137575b6110b094505f52600160205261108c610dc1610dbc5f6110876040822060405161105d81610c42565b81549081815260606003600185015494856020850152600281015460408501520154910152610c94565b610c09565b5f81126110fd5790670de0b6b3a7640000610e066110aa9383610bb8565b906111dd565b674563918244f40000106110c057565b60405162461bcd60e51b815260206004820152601560248201527413585e081b195d995c9859d948195e18d959591959605a1b6044820152606490fd5b61110690610bdf565b90670de0b6b3a7640000821061112157600a915004906111dd565b670de0b6b3a7640000610e476110aa9383610bb8565b90506020843d602011611165575b8161115260209383610c72565b8101031261014e576110b0935190611034565b3d9150611145565b60405162461bcd60e51b815260206004820152601c60248201527f506f736974696f6e20756e646572636f6c6c61746572616c697a6564000000006044820152606490fd5b505050565b5f546001600160a01b031633036111ca57565b63118cdaa760e01b5f523360045260245ffd5b90915f19838309928083029283808610950394808603951461126e57848311156112565790829109815f0382168092046002816003021880820260020302808202600203028082026002030280820260020302808202600203028091026002030293600183805f03040190848311900302920304170290565b82634e487b715f52156003026011186020526024601cfd5b505090610e0d9250610c2456fea2646970667358221220171440633dd753e45fe04a0961a366e79dc4e3720235b46e8b5d75b677c9483c64736f6c63430008210033","linkReferences":{}},"methodIdentifiers":{"MAX_LEVERAGE()":"9b45ec97","ONE()":"c2ee3a08","fundingVelocity()":"37ed6d8e","getExecutionPrice(bytes32,int256)":"5d490351","insuranceFund()":"b7902303","liquidate(bytes32,address)":"771b51d2","marginToken()":"6685ed87","markets(bytes32)":"7564912b","modifyPosition(bytes32,int256,int256)":"1b89f3d4","oracle()":"7dc0d1d0","owner()":"8da5cb5b","positions(bytes32,address)":"29d88594","renounceOwnership()":"715018a6","skewScale()":"74968a1b","transferOwnership(address)":"f2fde38b","withdrawInsuranceFund(address,uint256)":"3296d983"}}}}}