{"contracts/perps/AgentPerpEngine.sol":{"AgentPerpEngine":{"abi":[{"type":"constructor","inputs":[{"name":"_oracle","type":"address","internalType":"contract SkillOracle"},{"name":"_marginToken","type":"address","internalType":"contract IERC20"},{"name":"_skewScale","type":"uint256","internalType":"uint256"}],"stateMutability":"nonpayable"},{"type":"function","name":"MAX_LEVERAGE","inputs":[],"outputs":[{"name":"","type":"uint256","internalType":"uint256"}],"stateMutability":"view"},{"type":"function","name":"ONE","inputs":[],"outputs":[{"name":"","type":"uint256","internalType":"uint256"}],"stateMutability":"view"},{"type":"function","name":"fundingVelocity","inputs":[],"outputs":[{"name":"","type":"uint256","internalType":"uint256"}],"stateMutability":"view"},{"type":"function","name":"getExecutionPrice","inputs":[{"name":"agentId","type":"bytes32","internalType":"bytes32"},{"name":"sizeDelta","type":"int256","internalType":"int256"}],"outputs":[{"name":"","type":"uint256","internalType":"uint256"}],"stateMutability":"view"},{"type":"function","name":"insuranceFund","inputs":[],"outputs":[{"name":"","type":"uint256","internalType":"uint256"}],"stateMutability":"view"},{"type":"function","name":"liquidate","inputs":[{"name":"agentId","type":"bytes32","internalType":"bytes32"},{"name":"trader","type":"address","internalType":"address"}],"outputs":[],"stateMutability":"nonpayable"},{"type":"function","name":"marginToken","inputs":[],"outputs":[{"name":"","type":"address","internalType":"contract IERC20"}],"stateMutability":"view"},{"type":"function","name":"markets","inputs":[{"name":"","type":"bytes32","internalType":"bytes32"}],"outputs":[{"name":"totalLongOI","type":"uint256","internalType":"uint256"},{"name":"totalShortOI","type":"uint256","internalType":"uint256"},{"name":"currentFundingRate","type":"int256","internalType":"int256"},{"name":"lastUpdateTimestamp","type":"uint256","internalType":"uint256"}],"stateMutability":"view"},{"type":"function","name":"modifyPosition","inputs":[{"name":"agentId","type":"bytes32","internalType":"bytes32"},{"name":"marginDelta","type":"int256","internalType":"int256"},{"name":"sizeDelta","type":"int256","internalType":"int256"}],"outputs":[],"stateMutability":"nonpayable"},{"type":"function","name":"oracle","inputs":[],"outputs":[{"name":"","type":"address","internalType":"contract SkillOracle"}],"stateMutability":"view"},{"type":"function","name":"owner","inputs":[],"outputs":[{"name":"","type":"address","internalType":"address"}],"stateMutability":"view"},{"type":"function","name":"positions","inputs":[{"name":"","type":"bytes32","internalType":"bytes32"},{"name":"","type":"address","internalType":"address"}],"outputs":[{"name":"size","type":"int256","internalType":"int256"},{"name":"margin","type":"uint256","internalType":"uint256"},{"name":"entryPrice","type":"uint256","internalType":"uint256"},{"name":"lastFundingRate","type":"int256","internalType":"int256"}],"stateMutability":"view"},{"type":"function","name":"renounceOwnership","inputs":[],"outputs":[],"stateMutability":"nonpayable"},{"type":"function","name":"skewScale","inputs":[],"outputs":[{"name":"","type":"uint256","internalType":"uint256"}],"stateMutability":"view"},{"type":"function","name":"transferOwnership","inputs":[{"name":"newOwner","type":"address","internalType":"address"}],"outputs":[],"stateMutability":"nonpayable"},{"type":"function","name":"withdrawInsuranceFund","inputs":[{"name":"to","type":"address","internalType":"address"},{"name":"amount","type":"uint256","internalType":"uint256"}],"outputs":[],"stateMutability":"nonpayable"},{"type":"event","name":"InsuranceFundWithdrawn","inputs":[{"name":"to","type":"address","indexed":true,"internalType":"address"},{"name":"amount","type":"uint256","indexed":false,"internalType":"uint256"}],"anonymous":false},{"type":"event","name":"OwnershipTransferred","inputs":[{"name":"previousOwner","type":"address","indexed":true,"internalType":"address"},{"name":"newOwner","type":"address","indexed":true,"internalType":"address"}],"anonymous":false},{"type":"event","name":"PositionLiquidated","inputs":[{"name":"agentId","type":"bytes32","indexed":true,"internalType":"bytes32"},{"name":"trader","type":"address","indexed":true,"internalType":"address"},{"name":"size","type":"int256","indexed":false,"internalType":"int256"},{"name":"liquidationPrice","type":"uint256","indexed":false,"internalType":"uint256"}],"anonymous":false},{"type":"event","name":"PositionOpened","inputs":[{"name":"agentId","type":"bytes32","indexed":true,"internalType":"bytes32"},{"name":"trader","type":"address","indexed":true,"internalType":"address"},{"name":"sizeDelta","type":"int256","indexed":false,"internalType":"int256"},{"name":"executionPrice","type":"uint256","indexed":false,"internalType":"uint256"},{"name":"newSize","type":"int256","indexed":false,"internalType":"int256"},{"name":"margin","type":"uint256","indexed":false,"internalType":"uint256"}],"anonymous":false},{"type":"error","name":"OwnableInvalidOwner","inputs":[{"name":"owner","type":"address","internalType":"address"}]},{"type":"error","name":"OwnableUnauthorizedAccount","inputs":[{"name":"account","type":"address","internalType":"address"}]},{"type":"error","name":"SafeERC20FailedOperation","inputs":[{"name":"token","type":"address","internalType":"address"}]}],"userdoc":{},"devdoc":{},"evm":{"bytecode":{"object":"6101003461021257601f6114b238819003918201601f19168301916001600160401b03831184841017610216578084926060946040528339810103126102125780516001600160a01b0381169190828103610212576020820151916001600160a01b0383169081840361021257604001519333156101ff575f8054336001600160a01b0319821681178355604051939290916001600160a01b0316907f8be0079c531659141344cd1fd0a4f28419497f9722a3daafe3b4186f6b6457e09080a3156101cc57501561018757821561014d5760805260a05260c05264e8d4a5100060e052604051611287908161022b82396080518181816101f001528181610af40152610f1a015260a051818181610325015281816104c9015281816105d30152818161079801526108b3015260c05181818161043a0152610b8d015260e0518181816105380152610c9f0152f35b60405162461bcd60e51b8152602060048201526012602482015271496e76616c696420736b6577207363616c6560701b6044820152606490fd5b60405162461bcd60e51b815260206004820152601460248201527f496e76616c6964206d617267696e20746f6b656e0000000000000000000000006044820152606490fd5b62461bcd60e51b815260206004820152600e60248201526d496e76616c6964206f7261636c6560901b6044820152606490fd5b631e4fbdf760e01b5f525f60045260245ffd5b5f80fd5b634e487b7160e01b5f52604160045260245ffdfe60806040526004361015610011575f80fd5b5f3560e01c80631b89f3d4146106e457806329d885941461067e5780633296d9831461055b57806337ed6d8e146105215780635d490351146104f85780636685ed87146104b4578063715018a61461045d57806374968a1b146104235780637564912b146103d7578063771b51d21461021f5780637dc0d1d0146101db5780638da5cb5b146101b45780639b45ec9714610191578063b790230314610174578063c2ee3a08146101525763f2fde38b146100c9575f80fd5b3461014e57602036600319011261014e576100e261096c565b6100ea6110d5565b6001600160a01b0316801561013b575f80546001600160a01b03198116831782556001600160a01b0316907f8be0079c531659141344cd1fd0a4f28419497f9722a3daafe3b4186f6b6457e09080a3005b631e4fbdf760e01b5f525f60045260245ffd5b5f80fd5b3461014e575f36600319011261014e576020604051670de0b6b3a76400008152f35b3461014e575f36600319011261014e576020600354604051908152f35b3461014e575f36600319011261014e576020674563918244f40000604051908152f35b3461014e575f36600319011261014e575f546040516001600160a01b039091168152602090f35b3461014e575f36600319011261014e576040517f00000000000000000000000000000000000000000000000000000000000000006001600160a01b03168152602090f35b3461014e57604036600319011261014e5760043561023b610956565b9061024581610c59565b805f52600260205260405f2060018060a01b0383165f5260205260405f20805480156103a457825f52600160205260405f20935f82135f1461039b5761029361028d83610aaf565b85610ad6565b9460028401936102af8554886102a887611153565b9187611166565b916001820192600a6102c385549283610a4e565b91051315610363577fa60e06241bd31f87f24f911870fde2148192f08dab3ceff96741c9cbc8d500a3955f610349946102ff6040988395610cda565b8181549555555561031f6103176064830480936109a9565b600354610ac9565b600355337f00000000000000000000000000000000000000000000000000000000000000006110fb565b81515f815260208101959095526001600160a01b031693a3005b60405162461bcd60e51b815260206004820152601060248201526f4e6f74206c6971756964617461626c6560801b6044820152606490fd5b6102938261028d565b60405162461bcd60e51b815260206004820152600b60248201526a2737903837b9b4ba34b7b760a91b6044820152606490fd5b3461014e57602036600319011261014e576004355f526001602052608060405f208054906001810154906003600282015491015491604051938452602084015260408301526060820152f35b3461014e575f36600319011261014e5760206040517f00000000000000000000000000000000000000000000000000000000000000008152f35b3461014e575f36600319011261014e576104756110d5565b5f80546001600160a01b0319811682556001600160a01b03167f8be0079c531659141344cd1fd0a4f28419497f9722a3daafe3b4186f6b6457e08280a3005b3461014e575f36600319011261014e576040517f00000000000000000000000000000000000000000000000000000000000000006001600160a01b03168152602090f35b3461014e57604036600319011261014e576020610519602435600435610ad6565b604051908152f35b3461014e575f36600319011261014e5760206040517f00000000000000000000000000000000000000000000000000000000000000008152f35b3461014e57604036600319011261014e5761057461096c565b602435906105806110d5565b6001600160a01b0381169182156106455760035490808210610600576105f7817ff921e3865f3b6c74a325ab75d54571c15d97e71f64b87607b421235a8f22c2ec946105ce826020966109a9565b6003557f00000000000000000000000000000000000000000000000000000000000000006110fb565b604051908152a2005b60405162461bcd60e51b815260206004820152601b60248201527f496e73756666696369656e7420696e737572616e63652066756e6400000000006044820152606490fd5b60405162461bcd60e51b8152602060048201526011602482015270125b9d985b1a59081c9958da5c1a595b9d607a1b6044820152606490fd5b3461014e57604036600319011261014e57610697610956565b6004355f52600260205260405f209060018060a01b03165f52602052608060405f208054906001810154906003600282015491015491604051938452602084015260408301526060820152f35b3461014e57606036600319011261014e5760443560043560243561070782610c59565b5f811390816108b1575b61071b8484610ad6565b91835f52600260205260405f2060018060a01b0333165f5260205260405f2091845f52600160205260405f20916107658588865460028801549061075f8189610cda565b88610d15565b5f82121561088f575061077790610aaf565b600183019081549181831061085457610793826107bc946109a9565b9055337f00000000000000000000000000000000000000000000000000000000000000006110fb565b81545f811315610824576107d1908254610ac9565b90555b60018154910154916107e7838386610ee6565b6040519485526020850152604084015260608301527ff3cd735e5cc5de64516e8a4249790c157e5da9197696f5d7ebc35fb3f1850ff560803393a3005b5f8112610833575b50506107d4565b600161084161084b92610aaf565b9201918254610ac9565b9055848061082c565b60405162461bcd60e51b815260206004820152601360248201527224b739bab33334b1b4b2b73a1036b0b933b4b760691b6044820152606490fd5b61089a575b506107bc565b6108a960018401918254610ac9565b905585610894565b7f00000000000000000000000000000000000000000000000000000000000000006040516323b872dd60e01b5f5233600452306024528260445260205f60648180865af19060015f5114821615610935575b6040525f606052156109155750610711565b635274afe760e01b5f9081526001600160a01b0391909116600452602490fd5b90600181151661094d57823b15153d15161690610903565b503d5f823e3d90fd5b602435906001600160a01b038216820361014e57565b600435906001600160a01b038216820361014e57565b8181029291811591840414171561099557565b634e487b7160e01b5f52601160045260245ffd5b9190820391821161099557565b6080810190811067ffffffffffffffff8211176109d257604052565b634e487b7160e01b5f52604160045260245ffd5b90601f8019910116810190811067ffffffffffffffff8211176109d257604052565b81810392915f13801582851316918412161761099557565b8115610a3a57600160ff1b81145f19831416610995570590565b634e487b7160e01b5f52601260045260245ffd5b9190915f838201938412911290801582169115161761099557565b90670de0b6b3a7640000820291808305670de0b6b3a7640000149015171561099557565b81810292915f8212600160ff1b82141661099557818405149015171561099557565b600160ff1b8114610995575f0390565b8115610a3a570490565b9190820180921161099557565b604051630ca625e360e31b81526004810182905290916020826024817f00000000000000000000000000000000000000000000000000000000000000006001600160a01b03165afa918215610c4e575f92610c18575b50610b86610b8b91610bb293945f5260016020526002610b7e60405f20604051610b55816109b6565b815490818152606060036001850154948560208501528781015460408501520154910152610a08565b910590610a4e565b610a69565b7f000000000000000000000000000000000000000000000000000000000000000090610a20565b5f8112610bda5790670de0b6b3a7640000610bd0610bd79383610982565b0490610ac9565b90565b610be390610aaf565b90670de0b6b3a76400008210610bfb57600a91500490565b670de0b6b3a7640000610c11610bd79383610982565b04906109a9565b91506020823d602011610c46575b81610c33602093836109e6565b8101031261014e57905190610b86610b2c565b3d9150610c26565b6040513d5f823e3d90fd5b5f52600160205260405f206003810190610c748254426109a9565b80610c7e57505050565b6002610cc9610b8b610cd393610cc4610c9d8754600189015490610a08565b7f000000000000000000000000000000000000000000000000000000000000000090610a8d565b610a8d565b9201918254610a4e565b9055429055565b905f811315610cf257610cee9082546109a9565b9055565b5f8112610cfd575050565b6001610d0b610cee92610aaf565b92019182546109a9565b92909391938115610edf578015610ed3575f8113918280610eca575b8015610eb7575b610e5e57610d63610d4883611153565b610d5183611153565b80821015610e5757505b858885611166565b5f811315610de75790610d8891610d7f60018801918254610ac9565b90555b82610a4e565b8085559081610d9e57505050505f915060020155565b82610ddd575b8215610dc1575b505015610db9575060020155565b915060020155565b5f13915081610dd3575b505f80610dab565b5f9150125f610dcb565b5f82139250610da4565b610df090610aaf565b90600186018054838110610e1257610d8893610e0b916109a9565b9055610d82565b60405162461bcd60e51b815260206004820152601760248201527f4c6971756964617461626c652064756520746f20504e4c0000000000000000006044820152606490fd5b9050610d5b565b81925092610ea7610eb294610ea160029798610e7c610ead96611153565b90610e9a610e8985611153565b94610e948685610ac9565b99610a4e565b8b55610982565b92610982565b90610ac9565b610abf565b910155565b505f82128015610d3857505f8112610d38565b505f8113610d31565b50825560029091015550565b5050505050565b919080156110d057811561108b57610efd90611153565b604051630ca625e360e31b815260048101849052926020846024817f00000000000000000000000000000000000000000000000000000000000000006001600160a01b03165afa908115610c4e575f91611055575b610fce94505f526001602052610faa610b8b610b865f610fa560408220604051610f7b816109b6565b81549081815260606003600185015494856020850152600281015460408501520154910152610a08565b610a4e565b5f811261101b5790670de0b6b3a7640000610bd0610fc89383610982565b906111b3565b674563918244f4000010610fde57565b60405162461bcd60e51b815260206004820152601560248201527413585e081b195d995c9859d948195e18d959591959605a1b6044820152606490fd5b61102490610aaf565b90670de0b6b3a7640000821061103f57600a915004906111b3565b670de0b6b3a7640000610c11610fc89383610982565b90506020843d602011611083575b81611070602093836109e6565b8101031261014e57610fce935190610f52565b3d9150611063565b60405162461bcd60e51b815260206004820152601c60248201527f506f736974696f6e20756e646572636f6c6c61746572616c697a6564000000006044820152606490fd5b505050565b5f546001600160a01b031633036110e857565b63118cdaa760e01b5f523360045260245ffd5b916040519163a9059cbb60e01b5f5260018060a01b031660045260245260205f60448180865af19060015f511482161561113b575b604052156109155750565b90600181151661094d57823b15153d15161690611130565b5f811261115d5790565b610bd790610aaf565b9290831580156111ab575b6111a3575f670de0b6b3a764000094136111965761119292610cc491610a08565b0590565b610cc49061119293610a08565b505050505f90565b508115611171565b90915f198383099280830292838086109503948086039514611244578483111561122c5790829109815f0382168092046002816003021880820260020302808202600203028082026002030280820260020302808202600203028091026002030293600183805f03040190848311900302920304170290565b82634e487b715f52156003026011186020526024601cfd5b505090610bd79250610abf56fea26469706673582212207d5e55725a3b51f197cf3992e31bda61b3f74e8a79f332f48419cb011dbfe79664736f6c63430008210033","linkReferences":{}},"methodIdentifiers":{"MAX_LEVERAGE()":"9b45ec97","ONE()":"c2ee3a08","fundingVelocity()":"37ed6d8e","getExecutionPrice(bytes32,int256)":"5d490351","insuranceFund()":"b7902303","liquidate(bytes32,address)":"771b51d2","marginToken()":"6685ed87","markets(bytes32)":"7564912b","modifyPosition(bytes32,int256,int256)":"1b89f3d4","oracle()":"7dc0d1d0","owner()":"8da5cb5b","positions(bytes32,address)":"29d88594","renounceOwnership()":"715018a6","skewScale()":"74968a1b","transferOwnership(address)":"f2fde38b","withdrawInsuranceFund(address,uint256)":"3296d983"}}}}}