{"contracts/perps/AgentPerpEngineNative.sol":{"AgentPerpEngineNative":{"abi":[{"type":"constructor","inputs":[{"name":"_oracle","type":"address","internalType":"contract SkillOracle"},{"name":"_skewScale","type":"uint256","internalType":"uint256"}],"stateMutability":"nonpayable"},{"type":"receive","stateMutability":"payable"},{"type":"function","name":"ONE","inputs":[],"outputs":[{"name":"","type":"uint256","internalType":"uint256"}],"stateMutability":"view"},{"type":"function","name":"fundingVelocity","inputs":[],"outputs":[{"name":"","type":"uint256","internalType":"uint256"}],"stateMutability":"view"},{"type":"function","name":"insuranceFund","inputs":[],"outputs":[{"name":"","type":"uint256","internalType":"uint256"}],"stateMutability":"view"},{"type":"function","name":"liquidate","inputs":[{"name":"agentId","type":"bytes32","internalType":"bytes32"},{"name":"trader","type":"address","internalType":"address"}],"outputs":[],"stateMutability":"nonpayable"},{"type":"function","name":"markets","inputs":[{"name":"","type":"bytes32","internalType":"bytes32"}],"outputs":[{"name":"totalLongOI","type":"uint256","internalType":"uint256"},{"name":"totalShortOI","type":"uint256","internalType":"uint256"},{"name":"currentFundingRate","type":"int256","internalType":"int256"},{"name":"lastUpdateTimestamp","type":"uint256","internalType":"uint256"}],"stateMutability":"view"},{"type":"function","name":"maxLeverage","inputs":[],"outputs":[{"name":"","type":"uint256","internalType":"uint256"}],"stateMutability":"view"},{"type":"function","name":"modifyPosition","inputs":[{"name":"agentId","type":"bytes32","internalType":"bytes32"},{"name":"sizeDelta","type":"int256","internalType":"int256"}],"outputs":[],"stateMutability":"payable"},{"type":"function","name":"oracle","inputs":[],"outputs":[{"name":"","type":"address","internalType":"contract SkillOracle"}],"stateMutability":"view"},{"type":"function","name":"owner","inputs":[],"outputs":[{"name":"","type":"address","internalType":"address"}],"stateMutability":"view"},{"type":"function","name":"positions","inputs":[{"name":"","type":"bytes32","internalType":"bytes32"},{"name":"","type":"address","internalType":"address"}],"outputs":[{"name":"size","type":"int256","internalType":"int256"},{"name":"margin","type":"uint256","internalType":"uint256"},{"name":"entryPrice","type":"uint256","internalType":"uint256"},{"name":"lastFundingRate","type":"int256","internalType":"int256"}],"stateMutability":"view"},{"type":"function","name":"renounceOwnership","inputs":[],"outputs":[],"stateMutability":"nonpayable"},{"type":"function","name":"setFundingVelocity","inputs":[{"name":"newFundingVelocity","type":"uint256","internalType":"uint256"}],"outputs":[],"stateMutability":"nonpayable"},{"type":"function","name":"setMaxLeverage","inputs":[{"name":"newMaxLeverage","type":"uint256","internalType":"uint256"}],"outputs":[],"stateMutability":"nonpayable"},{"type":"function","name":"setSkewScale","inputs":[{"name":"newSkewScale","type":"uint256","internalType":"uint256"}],"outputs":[],"stateMutability":"nonpayable"},{"type":"function","name":"skewScale","inputs":[],"outputs":[{"name":"","type":"uint256","internalType":"uint256"}],"stateMutability":"view"},{"type":"function","name":"transferOwnership","inputs":[{"name":"newOwner","type":"address","internalType":"address"}],"outputs":[],"stateMutability":"nonpayable"},{"type":"function","name":"withdrawInsuranceFund","inputs":[{"name":"to","type":"address","internalType":"address payable"},{"name":"amount","type":"uint256","internalType":"uint256"}],"outputs":[],"stateMutability":"nonpayable"},{"type":"function","name":"withdrawMargin","inputs":[{"name":"agentId","type":"bytes32","internalType":"bytes32"},{"name":"amount","type":"uint256","internalType":"uint256"}],"outputs":[],"stateMutability":"nonpayable"},{"type":"event","name":"FundingVelocityUpdated","inputs":[{"name":"newFundingVelocity","type":"uint256","indexed":false,"internalType":"uint256"}],"anonymous":false},{"type":"event","name":"InsuranceFundWithdrawn","inputs":[{"name":"to","type":"address","indexed":true,"internalType":"address"},{"name":"amount","type":"uint256","indexed":false,"internalType":"uint256"}],"anonymous":false},{"type":"event","name":"MarginWithdrawn","inputs":[{"name":"agentId","type":"bytes32","indexed":true,"internalType":"bytes32"},{"name":"trader","type":"address","indexed":true,"internalType":"address"},{"name":"amount","type":"uint256","indexed":false,"internalType":"uint256"}],"anonymous":false},{"type":"event","name":"MaxLeverageUpdated","inputs":[{"name":"newMaxLeverage","type":"uint256","indexed":false,"internalType":"uint256"}],"anonymous":false},{"type":"event","name":"OwnershipTransferred","inputs":[{"name":"previousOwner","type":"address","indexed":true,"internalType":"address"},{"name":"newOwner","type":"address","indexed":true,"internalType":"address"}],"anonymous":false},{"type":"event","name":"PositionClosed","inputs":[{"name":"agentId","type":"bytes32","indexed":true,"internalType":"bytes32"},{"name":"trader","type":"address","indexed":true,"internalType":"address"},{"name":"size","type":"int256","indexed":false,"internalType":"int256"},{"name":"execPrice","type":"uint256","indexed":false,"internalType":"uint256"},{"name":"pnl","type":"int256","indexed":false,"internalType":"int256"}],"anonymous":false},{"type":"event","name":"PositionLiquidated","inputs":[{"name":"agentId","type":"bytes32","indexed":true,"internalType":"bytes32"},{"name":"trader","type":"address","indexed":true,"internalType":"address"},{"name":"size","type":"int256","indexed":false,"internalType":"int256"},{"name":"liquidationPrice","type":"uint256","indexed":false,"internalType":"uint256"}],"anonymous":false},{"type":"event","name":"PositionOpened","inputs":[{"name":"agentId","type":"bytes32","indexed":true,"internalType":"bytes32"},{"name":"trader","type":"address","indexed":true,"internalType":"address"},{"name":"sizeDelta","type":"int256","indexed":false,"internalType":"int256"},{"name":"execPrice","type":"uint256","indexed":false,"internalType":"uint256"},{"name":"newSize","type":"int256","indexed":false,"internalType":"int256"},{"name":"margin","type":"uint256","indexed":false,"internalType":"uint256"}],"anonymous":false},{"type":"event","name":"SkewScaleUpdated","inputs":[{"name":"newSkewScale","type":"uint256","indexed":false,"internalType":"uint256"}],"anonymous":false},{"type":"error","name":"FailedCall","inputs":[]},{"type":"error","name":"InsufficientBalance","inputs":[{"name":"balance","type":"uint256","internalType":"uint256"},{"name":"needed","type":"uint256","internalType":"uint256"}]},{"type":"error","name":"OwnableInvalidOwner","inputs":[{"name":"owner","type":"address","internalType":"address"}]},{"type":"error","name":"OwnableUnauthorizedAccount","inputs":[{"name":"account","type":"address","internalType":"address"}]},{"type":"error","name":"ReentrancyGuardReentrantCall","inputs":[]}],"userdoc":{},"devdoc":{},"evm":{"bytecode":{"object":"60a03461019557601f61155638819003918201601f19168301916001600160401b038311848410176101995780849260409485528339810103126101955780516001600160a01b038116918282036101955760200151913315610182575f8054336001600160a01b0319821681178355604051939290916001600160a01b0316907f8be0079c531659141344cd1fd0a4f28419497f9722a3daafe3b4186f6b6457e09080a360017f9b779b17422d0df92223018b32b4d1fa46e071723d6817e2486d003becc55f0055674563918244f400006005551561014f575081156101155760805260035564e8d4a510006004556040516113a890816101ae823960805181818161041a01528181610cb401526110390152f35b60405162461bcd60e51b8152602060048201526012602482015271496e76616c696420736b6577207363616c6560701b6044820152606490fd5b62461bcd60e51b815260206004820152600e60248201526d496e76616c6964206f7261636c6560901b6044820152606490fd5b631e4fbdf760e01b5f525f60045260245ffd5b5f80fd5b634e487b7160e01b5f52604160045260245ffdfe6080604052600436101561001a575b3615610018575f80fd5b005b5f3560e01c806329d88594146109db5780633296d983146108d357806337ed6d8e146108b6578063715018a61461085f578063722edadf1461081357806374968a1b146107f65780637564912b146107aa578063771b51d2146105cd57806379633da3146104495780637dc0d1d0146104055780638da5cb5b146103de578063ae3302c2146103c1578063b7902303146103a4578063c2ee3a0814610382578063ca3b1c81146102f5578063d3127e6314610266578063dcea2ab6146101715763f2fde38b0361000e573461016d57602036600319011261016d576004356001600160a01b0381169081900361016d57610112610b46565b801561015a575f80546001600160a01b03198116831782556001600160a01b0316907f8be0079c531659141344cd1fd0a4f28419497f9722a3daafe3b4186f6b6457e09080a3005b631e4fbdf760e01b5f525f60045260245ffd5b5f80fd5b3461016d57604036600319011261016d57600435602435610190610b6c565b5f828152600260209081526040808320338452909152902060018101805493919083851061022b576101d16101c88561020597610a57565b80935485611005565b55604051908282527f2b005b2b2dd86a46e800eb8759dd1c1d0274d7f87d24bf2e59086a870fdc034a60203393a3336111fc565b60017f9b779b17422d0df92223018b32b4d1fa46e071723d6817e2486d003becc55f0055005b60405162461bcd60e51b815260206004820152601360248201527224b739bab33334b1b4b2b73a1036b0b933b4b760691b6044820152606490fd5b3461016d57602036600319011261016d57600435610282610b46565b80156102b9576020817fb0f01601e93ad2a8fc4106e97567bc037aa114741705be9d80570fd2afa7bf1b92600555604051908152a1005b60405162461bcd60e51b8152602060048201526014602482015273496e76616c6964206d6178206c6576657261676560601b6044820152606490fd5b3461016d57602036600319011261016d57600435610311610b46565b8015610348576020817fd86f314f002a254d316bb9037a8af8bcae380e11f2472643ee2653a6948d4aef92600355604051908152a1005b60405162461bcd60e51b8152602060048201526012602482015271496e76616c696420736b6577207363616c6560701b6044820152606490fd5b3461016d575f36600319011261016d576020604051670de0b6b3a76400008152f35b3461016d575f36600319011261016d576020600654604051908152f35b3461016d575f36600319011261016d576020600554604051908152f35b3461016d575f36600319011261016d575f546040516001600160a01b039091168152602090f35b3461016d575f36600319011261016d576040517f00000000000000000000000000000000000000000000000000000000000000006001600160a01b03168152602090f35b604036600319011261016d57600435602435610463610b6c565b61046c82610bca565b6104768183610c96565b825f52600260205260405f2060018060a01b0333165f5260205260405f2092805f52600160205260405f20938054926104c0818660028501546104b9888b610df2565b8786610e2d565b9160018101966104d1348954610b39565b885581545f81131561059d576104e8908254610b39565b90555b54948654956104fb878287611005565b801580610594575b1561054c5750505f6102059655604051938452602084015260408301527fb98a4407abe01ad633df613ee9217d23eea990e18bf85b425a8bcc8c15c2f21a60603393a3336111fc565b93959450955090506040519485526020850152604084015260608301527ff3cd735e5cc5de64516e8a4249790c157e5da9197696f5d7ebc35fb3f1850ff560803393a3610205565b50861515610503565b5f81126105ac575b50506104eb565b60016105ba6105c492610a78565b9201918254610b39565b905587806105a5565b3461016d57604036600319011261016d576004356105e9610a41565b6105f1610b6c565b6105fa82610bca565b815f52600260205260405f2060018060a01b0382165f5260205260405f2091825490811561077757805f52600160205260405f20935f831394855f1461076e5761064c61064685610a78565b84610c96565b951561073e57670de0b6b3a76400006106728561066d60028601548a610a88565b610ac4565b05945b6001830195600a61068888549283610b14565b9105131561070657610205965f60027fa60e06241bd31f87f24f911870fde2148192f08dab3ceff96741c9cbc8d500a3956106c589604097610df2565b828a549a8183555501556106e86106e0606489048099610a57565b600654610b39565b600655825195865260208601526001600160a01b031693a3336111fc565b60405162461bcd60e51b815260206004820152601060248201526f4e6f74206c6971756964617461626c6560801b6044820152606490fd5b670de0b6b3a7640000610767610758886002860154610a88565b61076187610a78565b90610ac4565b0594610675565b61064c84610646565b60405162461bcd60e51b815260206004820152600b60248201526a2737903837b9b4ba34b7b760a91b6044820152606490fd5b3461016d57602036600319011261016d576004355f526001602052608060405f208054906001810154906003600282015491015491604051938452602084015260408301526060820152f35b3461016d575f36600319011261016d576020600354604051908152f35b3461016d57602036600319011261016d577f7c2c2f606ab62fc12553c7d547140b5aa4dd1f19672bbfcc05fa1f1f07584aca6020600435610852610b46565b80600455604051908152a1005b3461016d575f36600319011261016d57610877610b46565b5f80546001600160a01b0319811682556001600160a01b03167f8be0079c531659141344cd1fd0a4f28419497f9722a3daafe3b4186f6b6457e08280a3005b3461016d575f36600319011261016d576020600454604051908152f35b3461016d57604036600319011261016d576004356001600160a01b0381169081810361016d5760243590610905610b46565b61090d610b6c565b82156109a2576006549282841061095d5761092b8361020595610a57565b6006557ff921e3865f3b6c74a325ab75d54571c15d97e71f64b87607b421235a8f22c2ec6020604051858152a26111fc565b60405162461bcd60e51b815260206004820152601b60248201527f496e73756666696369656e7420696e737572616e63652066756e6400000000006044820152606490fd5b60405162461bcd60e51b8152602060048201526011602482015270125b9d985b1a59081c9958da5c1a595b9d607a1b6044820152606490fd5b3461016d57604036600319011261016d576109f4610a41565b6004355f52600260205260405f209060018060a01b03165f52602052608060405f208054906001810154906003600282015491015491604051938452602084015260408301526060820152f35b602435906001600160a01b038216820361016d57565b91908203918211610a6457565b634e487b7160e01b5f52601160045260245ffd5b600160ff1b8114610a64575f0390565b81810392915f138015828513169184121617610a6457565b90670de0b6b3a7640000820291808305670de0b6b3a76400001490151715610a6457565b81810292915f8212600160ff1b821416610a64578184051490151715610a6457565b8115610b0057600160ff1b81145f19831416610a64570590565b634e487b7160e01b5f52601260045260245ffd5b9190915f8382019384129112908015821691151617610a6457565b8115610b00570490565b91908201809211610a6457565b5f546001600160a01b03163303610b5957565b63118cdaa760e01b5f523360045260245ffd5b60027f9b779b17422d0df92223018b32b4d1fa46e071723d6817e2486d003becc55f005414610bbb5760027f9b779b17422d0df92223018b32b4d1fa46e071723d6817e2486d003becc55f0055565b633ee5aeb560e01b5f5260045ffd5b5f52600160205260405f206003810190610be5825442610a57565b80610bef57505050565b6002610c20610c17610c2a9361066d610c0e8754600189015490610a88565b60045490610ac4565b60035490610ae6565b9201918254610b14565b9055429055565b6080810190811067ffffffffffffffff821117610c4d57604052565b634e487b7160e01b5f52604160045260245ffd5b90601f8019910116810190811067ffffffffffffffff821117610c4d57604052565b81810292918115918404141715610a6457565b604051630ca625e360e31b81526004810182905290916020826024817f00000000000000000000000000000000000000000000000000000000000000006001600160a01b03165afa918215610de7575f92610db1575b50610d46610c1791610d4b93945f5260016020526002610d3e60405f20604051610d1581610c31565b815490818152606060036001850154948560208501528781015460408501520154910152610a88565b910590610b14565b610aa0565b5f8112610d735790670de0b6b3a7640000610d69610d709383610c83565b0490610b39565b90565b610d7c90610a78565b90670de0b6b3a76400008210610d9457600a91500490565b670de0b6b3a7640000610daa610d709383610c83565b0490610a57565b91506020823d602011610ddf575b81610dcc60209383610c61565b8101031261016d57905190610d46610cec565b3d9150610dbf565b6040513d5f823e3d90fd5b905f811315610e0a57610e06908254610a57565b9055565b5f8112610e15575050565b6001610e23610e0692610a78565b9201918254610a57565b919293908415610ffc578015610fee575f8113908180610fe5575b8015610fd2575b610f7857610e7a610e5f82611312565b610e6888611312565b80821015610f7157505b848784611325565b955f871315610f0157610e9f9060018601610e96898254610b39565b90555b82610b14565b8085559081610eb657505050505f91506002015590565b82610ef7575b8215610edb575b505015610ed257506002015590565b91506002015590565b5f13915081610eed575b505f80610ec3565b5f9150125f610ee5565b5f82139250610ebc565b610f0a87610a78565b90600186018054838110610f2c57610e9f93610f2591610a57565b9055610e99565b60405162461bcd60e51b815260206004820152601960248201527f556e64657277617465723a206d617267696e203c206c6f7373000000000000006044820152606490fd5b9050610e72565b91610fc69150610fc0610fcb9496610fba600297610f9587611312565b90610fb3610fa285611312565b94610fad8685610b39565b99610b14565b8b55610c83565b92610c83565b90610b39565b610b2f565b9101555f90565b505f81128015610e4f57505f8612610e4f565b505f8613610e48565b509260029250815501555f90565b50505050505f90565b919080156111f75781156111b2575f8113156111a4575b604051630ca625e360e31b815260048101849052926020846024817f00000000000000000000000000000000000000000000000000000000000000006001600160a01b03165afa908115610de7575f9161116e575b6110ed94505f5260016020526110c9610c17610d465f6110c46040822060405161109a81610c31565b81549081815260606003600185015494856020850152600281015460408501520154910152610a88565b610b14565b5f81126111345790670de0b6b3a7640000610d696110e79383610c83565b90611274565b600554106110f757565b60405162461bcd60e51b815260206004820152601560248201527413585e081b195d995c9859d948195e18d959591959605a1b6044820152606490fd5b61113d90610a78565b90670de0b6b3a7640000821061115857600a91500490611274565b670de0b6b3a7640000610daa6110e79383610c83565b90506020843d60201161119c575b8161118960209383610c61565b8101031261016d576110ed935190611071565b3d915061117c565b6111ad90610a78565b61101c565b60405162461bcd60e51b815260206004820152601c60248201527f506f736974696f6e20756e646572636f6c6c61746572616c697a6564000000006044820152606490fd5b505050565b81471061125d57604051602081019080821067ffffffffffffffff831117610c4d575f9384938480949381946040525260018060a01b03165af11561123d57565b3d1561124e576040513d5f823e3d90fd5b63d6bda27560e01b5f5260045ffd5b504763cf47918160e01b5f5260045260245260445ffd5b90915f19838309928083029283808610950394808603951461130557848311156112ed5790829109815f0382168092046002816003021880820260020302808202600203028082026002030280820260020302808202600203028091026002030293600183805f03040190848311900302920304170290565b82634e487b715f52156003026011186020526024601cfd5b505090610d709250610b2f565b5f811261131c5790565b610d7090610a78565b92908315801561136a575b611362575f670de0b6b3a76400009413611355576113519261066d91610a88565b0590565b61066d9061135193610a88565b505050505f90565b50811561133056fea2646970667358221220a5612eb06f1467bbd9a9ace131815965719d3c102477f48e1f8cffccbecb37c264736f6c63430008210033","linkReferences":{}},"methodIdentifiers":{"ONE()":"c2ee3a08","fundingVelocity()":"37ed6d8e","insuranceFund()":"b7902303","liquidate(bytes32,address)":"771b51d2","markets(bytes32)":"7564912b","maxLeverage()":"ae3302c2","modifyPosition(bytes32,int256)":"79633da3","oracle()":"7dc0d1d0","owner()":"8da5cb5b","positions(bytes32,address)":"29d88594","renounceOwnership()":"715018a6","setFundingVelocity(uint256)":"722edadf","setMaxLeverage(uint256)":"d3127e63","setSkewScale(uint256)":"ca3b1c81","skewScale()":"74968a1b","transferOwnership(address)":"f2fde38b","withdrawInsuranceFund(address,uint256)":"3296d983","withdrawMargin(bytes32,uint256)":"dcea2ab6"}}}}}