{"abi":[{"type":"constructor","inputs":[{"name":"_oracle","type":"address","internalType":"contract SkillOracle"},{"name":"_marginToken","type":"address","internalType":"contract IERC20"},{"name":"_skewScale","type":"uint256","internalType":"uint256"}],"stateMutability":"nonpayable"},{"type":"function","name":"ONE","inputs":[],"outputs":[{"name":"","type":"uint256","internalType":"uint256"}],"stateMutability":"view"},{"type":"function","name":"fundingVelocity","inputs":[],"outputs":[{"name":"","type":"uint256","internalType":"uint256"}],"stateMutability":"view"},{"type":"function","name":"getExecutionPrice","inputs":[{"name":"agentId","type":"bytes32","internalType":"bytes32"},{"name":"sizeDelta","type":"int256","internalType":"int256"}],"outputs":[{"name":"","type":"uint256","internalType":"uint256"}],"stateMutability":"view"},{"type":"function","name":"marginToken","inputs":[],"outputs":[{"name":"","type":"address","internalType":"contract IERC20"}],"stateMutability":"view"},{"type":"function","name":"markets","inputs":[{"name":"","type":"bytes32","internalType":"bytes32"}],"outputs":[{"name":"totalLongOI","type":"uint256","internalType":"uint256"},{"name":"totalShortOI","type":"uint256","internalType":"uint256"},{"name":"currentFundingRate","type":"int256","internalType":"int256"},{"name":"lastUpdateTimestamp","type":"uint256","internalType":"uint256"}],"stateMutability":"view"},{"type":"function","name":"maxLeverage","inputs":[],"outputs":[{"name":"","type":"uint256","internalType":"uint256"}],"stateMutability":"view"},{"type":"function","name":"modifyPosition","inputs":[{"name":"agentId","type":"bytes32","internalType":"bytes32"},{"name":"marginDelta","type":"int256","internalType":"int256"},{"name":"sizeDelta","type":"int256","internalType":"int256"}],"outputs":[],"stateMutability":"nonpayable"},{"type":"function","name":"oracle","inputs":[],"outputs":[{"name":"","type":"address","internalType":"contract SkillOracle"}],"stateMutability":"view"},{"type":"function","name":"owner","inputs":[],"outputs":[{"name":"","type":"address","internalType":"address"}],"stateMutability":"view"},{"type":"function","name":"positions","inputs":[{"name":"","type":"bytes32","internalType":"bytes32"},{"name":"","type":"address","internalType":"address"}],"outputs":[{"name":"size","type":"int256","internalType":"int256"},{"name":"margin","type":"uint256","internalType":"uint256"},{"name":"entryPrice","type":"uint256","internalType":"uint256"},{"name":"lastFundingRate","type":"int256","internalType":"int256"}],"stateMutability":"view"},{"type":"function","name":"renounceOwnership","inputs":[],"outputs":[],"stateMutability":"nonpayable"},{"type":"function","name":"skewScale","inputs":[],"outputs":[{"name":"","type":"uint256","internalType":"uint256"}],"stateMutability":"view"},{"type":"function","name":"transferOwnership","inputs":[{"name":"newOwner","type":"address","internalType":"address"}],"outputs":[],"stateMutability":"nonpayable"},{"type":"event","name":"OwnershipTransferred","inputs":[{"name":"previousOwner","type":"address","indexed":true,"internalType":"address"},{"name":"newOwner","type":"address","indexed":true,"internalType":"address"}],"anonymous":false},{"type":"event","name":"PositionLiquidated","inputs":[{"name":"agentId","type":"bytes32","indexed":true,"internalType":"bytes32"},{"name":"trader","type":"address","indexed":true,"internalType":"address"},{"name":"size","type":"int256","indexed":false,"internalType":"int256"},{"name":"liquidationPrice","type":"uint256","indexed":false,"internalType":"uint256"}],"anonymous":false},{"type":"event","name":"PositionOpened","inputs":[{"name":"agentId","type":"bytes32","indexed":true,"internalType":"bytes32"},{"name":"trader","type":"address","indexed":true,"internalType":"address"},{"name":"sizeDelta","type":"int256","indexed":false,"internalType":"int256"},{"name":"executionPrice","type":"uint256","indexed":false,"internalType":"uint256"},{"name":"newSize","type":"int256","indexed":false,"internalType":"int256"},{"name":"margin","type":"uint256","indexed":false,"internalType":"uint256"}],"anonymous":false},{"type":"error","name":"OwnableInvalidOwner","inputs":[{"name":"owner","type":"address","internalType":"address"}]},{"type":"error","name":"OwnableUnauthorizedAccount","inputs":[{"name":"account","type":"address","internalType":"address"}]},{"type":"error","name":"SafeERC20FailedOperation","inputs":[{"name":"token","type":"address","internalType":"address"}]}],"bytecode":{"object":"0x60803461011557601f610c2e38819003918201601f19168301916001600160401b03831184841017610119578084926060946040528339810103126101155780516001600160a01b03811691908290036101155760208101516001600160a01b03811691908290036101155760400151903315610102575f8054336001600160a01b0319821681178355604051959290916001600160a01b0316907f8be0079c531659141344cd1fd0a4f28419497f9722a3daafe3b4186f6b6457e09080a3674563918244f4000060075560018060a01b0319600154161760015560018060a01b0319600254161760025560055564e8d4a51000600655610b00908161012e8239f35b631e4fbdf760e01b5f525f60045260245ffd5b5f80fd5b634e487b7160e01b5f52604160045260245ffdfe60806040526004361015610011575f80fd5b5f3560e01c80631b89f3d41461036257806329d88594146102f157806337ed6d8e146102d45780635d490351146102ab5780636685ed8714610283578063715018a61461022c57806374968a1b1461020f5780637564912b146101c35780637dc0d1d01461019b5780638da5cb5b14610174578063ae3302c214610157578063c2ee3a08146101355763f2fde38b146100a8575f80fd5b34610131576020366003190112610131576004356001600160a01b03811690819003610131576100d6610a4c565b801561011e575f80546001600160a01b03198116831782556001600160a01b0316907f8be0079c531659141344cd1fd0a4f28419497f9722a3daafe3b4186f6b6457e09080a3005b631e4fbdf760e01b5f525f60045260245ffd5b5f80fd5b34610131575f366003190112610131576020604051670de0b6b3a76400008152f35b34610131575f366003190112610131576020600754604051908152f35b34610131575f366003190112610131575f546040516001600160a01b039091168152602090f35b34610131575f366003190112610131576001546040516001600160a01b039091168152602090f35b34610131576020366003190112610131576004355f526003602052608060405f208054906001810154906003600282015491015491604051938452602084015260408301526060820152f35b34610131575f366003190112610131576020600554604051908152f35b34610131575f36600319011261013157610244610a4c565b5f80546001600160a01b0319811682556001600160a01b03167f8be0079c531659141344cd1fd0a4f28419497f9722a3daafe3b4186f6b6457e08280a3005b34610131575f366003190112610131576002546040516001600160a01b039091168152602090f35b346101315760403660031901126101315760206102cc60243560043561086f565b604051908152f35b34610131575f366003190112610131576020600654604051908152f35b34610131576040366003190112610131576024356001600160a01b0381168103610131576004355f52600460205260405f209060018060a01b03165f52602052608060405f208054906001810154906003600282015491015491604051938452602084015260408301526060820152f35b3461013157606036600319011261013157604435600435602435610385826109e4565b5f811380610747575b610398848461086f565b91835f52600460205260405f2060018060a01b0333165f5260205260405f2091845f52600360205260405f20866105b4575b505f82121561059257506103dd9061078d565b6001820190815491818310610557576103f9826104399461079d565b905560025460405163a9059cbb60e01b60208201523360248201526044808201939093529182526001600160a01b0316610434606483610839565b610a72565b80549081610484575b60010154916040519485526020850152604084015260608301527ff3cd735e5cc5de64516e8a4249790c157e5da9197696f5d7ebc35fb3f1850ff560803393a3005b5f82131561053c57670de0b6b3a764000061049f8484610826565b04670de0b6b3a7640000810290808204670de0b6b3a76400001490151715610528576001820154908115610514570460075410156104425760405162461bcd60e51b815260206004820152601560248201527413585e081b195d995c9859d948195e18d959591959605a1b6044820152606490fd5b634e487b7160e01b5f52601260045260245ffd5b634e487b7160e01b5f52601160045260245ffd5b670de0b6b3a764000061049f846105528561078d565b610826565b60405162461bcd60e51b815260206004820152601360248201527224b739bab33334b1b4b2b73a1036b0b933b4b760691b6044820152606490fd5b61059d575b50610439565b6105ac600183019182546107fe565b905584610597565b83545f81131561071957506105cb8454825461079d565b81555b83548061063a575b506105e287855461080b565b8085558560028601555f81135f1461060a5750610601845482546107fe565b90555b866103ca565b5f8112610619575b5050610604565b60016106276106319261078d565b92019182546107fe565b90558680610612565b670de0b6b3a7640000905f8113156106f2576106639061065e6002880154896107aa565b6107c2565b055b5f8113156106855761067c600186019182546107fe565b90555b876105d6565b61068e9061078d565b60018501908154908082106106ad576106a69161079d565b905561067f565b60405162461bcd60e51b815260206004820152601760248201527f4c6971756964617461626c652064756520746f20504e4c0000000000000000006044820152606490fd5b6107139061070d6107078960028a01546107aa565b9161078d565b906107c2565b05610665565b5f8112610727575b506105ce565b6107309061078d565b61073f6001830191825461079d565b905587610721565b6002546040516323b872dd60e01b602082015233602482015230604482015260648082018590528152610788916001600160a01b0316610434608483610839565b61038e565b600160ff1b8114610528575f0390565b9190820391821161052857565b81810392915f13801582851316918412161761052857565b81810292915f8212600160ff1b82141661052857818405149015171561052857565b811561051457600160ff1b81145f19831416610528570590565b9190820180921161052857565b9190915f838201938412911290801582169115161761052857565b8181029291811591840414171561052857565b90601f8019910116810190811067ffffffffffffffff82111761085b57604052565b634e487b7160e01b5f52604160045260245ffd5b600154604051630ca625e360e31b815260048101839052929190602090849060249082906001600160a01b03165afa9283156109d9575f936109a5575b505f52600360205260405f20906040516080810181811067ffffffffffffffff82111761085b576109129360029261090a926040528154908181526060600360018501549485602085015287810154604085015201549101526107aa565b91059061080b565b670de0b6b3a7640000810290808205670de0b6b3a764000014901517156105285760055461093f916107e4565b5f81126109675790670de0b6b3a764000061095d6109649383610826565b04906107fe565b90565b6109709061078d565b90670de0b6b3a7640000821061098857600a91500490565b670de0b6b3a764000061099e6109649383610826565b049061079d565b9092506020813d6020116109d1575b816109c160209383610839565b810103126101315751915f6108ac565b3d91506109b4565b6040513d5f823e3d90fd5b5f52600360205260405f2060038101906109ff82544261079d565b8015610a47576002610a36610a2d610a409361065e610a2487546001890154906107aa565b600654906107c2565b600554906107e4565b920191825461080b565b9055429055565b505050565b5f546001600160a01b03163303610a5f57565b63118cdaa760e01b5f523360045260245ffd5b905f602091828151910182855af1156109d9575f513d610ac157506001600160a01b0381163b155b610aa15750565b635274afe760e01b5f9081526001600160a01b0391909116600452602490fd5b60011415610a9a56fea2646970667358221220d0ff9b525ee7bd66a91b168f9eba64a5997d34c932c146ac124350f8205822be64736f6c63430008210033","linkReferences":{}},"methodIdentifiers":{"ONE()":"c2ee3a08","fundingVelocity()":"37ed6d8e","getExecutionPrice(bytes32,int256)":"5d490351","marginToken()":"6685ed87","markets(bytes32)":"7564912b","maxLeverage()":"ae3302c2","modifyPosition(bytes32,int256,int256)":"1b89f3d4","oracle()":"7dc0d1d0","owner()":"8da5cb5b","positions(bytes32,address)":"29d88594","renounceOwnership()":"715018a6","skewScale()":"74968a1b","transferOwnership(address)":"f2fde38b"},"id":0}