{"abi":[{"type":"constructor","inputs":[{"name":"_oracle","type":"address","internalType":"contract SkillOracle"},{"name":"_skewScale","type":"uint256","internalType":"uint256"}],"stateMutability":"nonpayable"},{"type":"receive","stateMutability":"payable"},{"type":"function","name":"ONE","inputs":[],"outputs":[{"name":"","type":"uint256","internalType":"uint256"}],"stateMutability":"view"},{"type":"function","name":"fundingVelocity","inputs":[],"outputs":[{"name":"","type":"uint256","internalType":"uint256"}],"stateMutability":"view"},{"type":"function","name":"insuranceFund","inputs":[],"outputs":[{"name":"","type":"uint256","internalType":"uint256"}],"stateMutability":"view"},{"type":"function","name":"liquidate","inputs":[{"name":"agentId","type":"bytes32","internalType":"bytes32"},{"name":"trader","type":"address","internalType":"address"}],"outputs":[],"stateMutability":"nonpayable"},{"type":"function","name":"markets","inputs":[{"name":"","type":"bytes32","internalType":"bytes32"}],"outputs":[{"name":"totalLongOI","type":"uint256","internalType":"uint256"},{"name":"totalShortOI","type":"uint256","internalType":"uint256"},{"name":"currentFundingRate","type":"int256","internalType":"int256"},{"name":"lastUpdateTimestamp","type":"uint256","internalType":"uint256"}],"stateMutability":"view"},{"type":"function","name":"maxLeverage","inputs":[],"outputs":[{"name":"","type":"uint256","internalType":"uint256"}],"stateMutability":"view"},{"type":"function","name":"modifyPosition","inputs":[{"name":"agentId","type":"bytes32","internalType":"bytes32"},{"name":"sizeDelta","type":"int256","internalType":"int256"}],"outputs":[],"stateMutability":"payable"},{"type":"function","name":"oracle","inputs":[],"outputs":[{"name":"","type":"address","internalType":"contract SkillOracle"}],"stateMutability":"view"},{"type":"function","name":"owner","inputs":[],"outputs":[{"name":"","type":"address","internalType":"address"}],"stateMutability":"view"},{"type":"function","name":"positions","inputs":[{"name":"","type":"bytes32","internalType":"bytes32"},{"name":"","type":"address","internalType":"address"}],"outputs":[{"name":"size","type":"int256","internalType":"int256"},{"name":"margin","type":"uint256","internalType":"uint256"},{"name":"entryPrice","type":"uint256","internalType":"uint256"},{"name":"lastFundingRate","type":"int256","internalType":"int256"}],"stateMutability":"view"},{"type":"function","name":"renounceOwnership","inputs":[],"outputs":[],"stateMutability":"nonpayable"},{"type":"function","name":"setFundingVelocity","inputs":[{"name":"_fundingVelocity","type":"uint256","internalType":"uint256"}],"outputs":[],"stateMutability":"nonpayable"},{"type":"function","name":"setMaxLeverage","inputs":[{"name":"_maxLeverage","type":"uint256","internalType":"uint256"}],"outputs":[],"stateMutability":"nonpayable"},{"type":"function","name":"setSkewScale","inputs":[{"name":"_skewScale","type":"uint256","internalType":"uint256"}],"outputs":[],"stateMutability":"nonpayable"},{"type":"function","name":"skewScale","inputs":[],"outputs":[{"name":"","type":"uint256","internalType":"uint256"}],"stateMutability":"view"},{"type":"function","name":"transferOwnership","inputs":[{"name":"newOwner","type":"address","internalType":"address"}],"outputs":[],"stateMutability":"nonpayable"},{"type":"function","name":"withdrawInsuranceFund","inputs":[{"name":"to","type":"address","internalType":"address payable"},{"name":"amount","type":"uint256","internalType":"uint256"}],"outputs":[],"stateMutability":"nonpayable"},{"type":"function","name":"withdrawMargin","inputs":[{"name":"agentId","type":"bytes32","internalType":"bytes32"},{"name":"amount","type":"uint256","internalType":"uint256"}],"outputs":[],"stateMutability":"nonpayable"},{"type":"event","name":"OwnershipTransferred","inputs":[{"name":"previousOwner","type":"address","indexed":true,"internalType":"address"},{"name":"newOwner","type":"address","indexed":true,"internalType":"address"}],"anonymous":false},{"type":"event","name":"PositionClosed","inputs":[{"name":"agentId","type":"bytes32","indexed":true,"internalType":"bytes32"},{"name":"trader","type":"address","indexed":true,"internalType":"address"},{"name":"size","type":"int256","indexed":false,"internalType":"int256"},{"name":"execPrice","type":"uint256","indexed":false,"internalType":"uint256"},{"name":"pnl","type":"int256","indexed":false,"internalType":"int256"}],"anonymous":false},{"type":"event","name":"PositionLiquidated","inputs":[{"name":"agentId","type":"bytes32","indexed":true,"internalType":"bytes32"},{"name":"trader","type":"address","indexed":true,"internalType":"address"},{"name":"size","type":"int256","indexed":false,"internalType":"int256"},{"name":"liquidationPrice","type":"uint256","indexed":false,"internalType":"uint256"}],"anonymous":false},{"type":"event","name":"PositionOpened","inputs":[{"name":"agentId","type":"bytes32","indexed":true,"internalType":"bytes32"},{"name":"trader","type":"address","indexed":true,"internalType":"address"},{"name":"sizeDelta","type":"int256","indexed":false,"internalType":"int256"},{"name":"execPrice","type":"uint256","indexed":false,"internalType":"uint256"},{"name":"newSize","type":"int256","indexed":false,"internalType":"int256"},{"name":"margin","type":"uint256","indexed":false,"internalType":"uint256"}],"anonymous":false},{"type":"error","name":"OwnableInvalidOwner","inputs":[{"name":"owner","type":"address","internalType":"address"}]},{"type":"error","name":"OwnableUnauthorizedAccount","inputs":[{"name":"account","type":"address","internalType":"address"}]}],"bytecode":{"object":"0x6080346100ef57601f610ff238819003918201601f19168301916001600160401b038311848410176100f35780849260409485528339810103126100ef5780516001600160a01b03811691908290036100ef576020015133156100dc575f8054336001600160a01b0319821681178355604051949290916001600160a01b0316907f8be0079c531659141344cd1fd0a4f28419497f9722a3daafe3b4186f6b6457e09080a3674563918244f40000600655600180546001600160a01b03191691909117905560045564e8d4a51000600555610eea90816101088239f35b631e4fbdf760e01b5f525f60045260245ffd5b5f80fd5b634e487b7160e01b5f52604160045260245ffdfe6080604052600436101561001a575b3615610018575f80fd5b005b5f3560e01c806329d8859414610b145780633296d98314610a3257806337ed6d8e14610a15578063715018a6146109be578063722edadf1461099d57806374968a1b146109805780637564912b14610934578063771b51d2146106f557806379633da3146103345780637dc0d1d01461030c5780638da5cb5b146102e5578063ae3302c2146102c8578063b7902303146102ab578063c2ee3a0814610289578063ca3b1c8114610268578063d3127e6314610247578063dcea2ab6146101715763f2fde38b0361000e573461016d57602036600319011261016d576004356001600160a01b0381169081900361016d57610112610cb1565b801561015a575f80546001600160a01b03198116831782556001600160a01b0316907f8be0079c531659141344cd1fd0a4f28419497f9722a3daafe3b4186f6b6457e09080a3005b631e4fbdf760e01b5f525f60045260245ffd5b5f80fd5b3461016d57604036600319011261016d576004355f90815260036020908152604080832033845290915290206001018054906024359081831061020c575f80808481946101be8289610b90565b9055335af16101cb610bd3565b50156101d357005b60405162461bcd60e51b815260206004820152601160248201527015da5d1a191c985dd85b0819985a5b1959607a1b6044820152606490fd5b60405162461bcd60e51b815260206004820152601360248201527224b739bab33334b1b4b2b73a1036b0b933b4b760691b6044820152606490fd5b3461016d57602036600319011261016d57610260610cb1565b600435600655005b3461016d57602036600319011261016d57610281610cb1565b600480359055005b3461016d575f36600319011261016d576020604051670de0b6b3a76400008152f35b3461016d575f36600319011261016d576020600754604051908152f35b3461016d575f36600319011261016d576020600654604051908152f35b3461016d575f36600319011261016d575f546040516001600160a01b039091168152602090f35b3461016d575f36600319011261016d576001546040516001600160a01b039091168152602090f35b604036600319011261016d5760243560043561034f81610cd7565b6103598282610d3f565b5f82815260036020908152604080832033845282528083208584526002909252822081549395909390928113156106c7575061039781548454610b90565b83555b8054801515806106be575b6105df575b506103b6828254610c76565b9283825585600283015560018201936103d0348654610c91565b85555f8113156105af57506103e782548254610c91565b90555b54801580156104df575b806104d5575b156104935750505f815491555f80808084335af1610416610bd3565b501561045557604051925f8452602084015260408301527fb98a4407abe01ad633df613ee9217d23eea990e18bf85b425a8bcc8c15c2f21a60603393a3005b60405162461bcd60e51b81526020600482015260166024820152751499599d5b99081d1c985b9cd9995c8819985a5b195960521b6044820152606490fd5b90939154916040519485526020850152604084015260608301527ff3cd735e5cc5de64516e8a4249790c157e5da9197696f5d7ebc35fb3f1850ff560803393a3005b50825415156103fa565b5f82131561059457670de0b6b3a76400006104fa8784610c9e565b04670de0b6b3a7640000810290808204670de0b6b3a7640000149015171561058057845490811561056c570460065410156103f45760405162461bcd60e51b815260206004820152601560248201527413585e081b195d995c9859d948195e18d959591959605a1b6044820152606490fd5b634e487b7160e01b5f52601260045260245ffd5b634e487b7160e01b5f52601160045260245ffd5b670de0b6b3a76400006104fa876105aa85610c12565b610c9e565b5f81126105be575b50506103ea565b60016105cc6105d692610c12565b9201918254610c91565b905585806105b7565b670de0b6b3a7640000905f8113156106975761060890610603600285015489610c22565b610c3a565b055b5f81131561062a5761062160018301918254610c91565b90555b856103aa565b61063390610c12565b60018201908154908082106106525761064b91610b90565b9055610624565b60405162461bcd60e51b815260206004820152601960248201527f556e64657277617465723a206d617267696e203c206c6f7373000000000000006044820152606490fd5b6106b8906106b26106ac896002870154610c22565b91610c12565b90610c3a565b0561060a565b508215156103a5565b5f81126106d5575b5061039a565b6106de90610c12565b6106ed60018501918254610b90565b9055856106cf565b3461016d57604036600319011261016d57600435610711610b7a565b9061071b81610cd7565b805f52600360205260405f2060018060a01b0383165f5260205260405f2091825492831561090157825f52600260205260405f20905f851391825f146108f85761076d61076787610c12565b86610d3f565b9583156108ce57670de0b6b3a764000061078f8261060360028701548b610c22565b05925b6001810193600a6107a586549283610c76565b91051315610896575f9485948594859485931561087757506107c984548254610b90565b90555b8181549355556107eb6107e3606483048093610b90565b600754610c91565b600755335af16107f9610bd3565b501561083a5760407fa60e06241bd31f87f24f911870fde2148192f08dab3ceff96741c9cbc8d500a3918151945f8652602086015260018060a01b031693a3005b60405162461bcd60e51b8152602060048201526015602482015274131a5c5d5a59185d1bdc881c185e4819985a5b1959605a1b6044820152606490fd5b600161088561088f92610c12565b9201918254610b90565b90556107cc565b60405162461bcd60e51b815260206004820152601060248201526f4e6f74206c6971756964617461626c6560801b6044820152606490fd5b670de0b6b3a76400006108f16108e8896002870154610c22565b6106b284610c12565b0592610792565b61076d86610767565b60405162461bcd60e51b815260206004820152600b60248201526a2737903837b9b4ba34b7b760a91b6044820152606490fd5b3461016d57602036600319011261016d576004355f526002602052608060405f208054906001810154906003600282015491015491604051938452602084015260408301526060820152f35b3461016d575f36600319011261016d576020600454604051908152f35b3461016d57602036600319011261016d576109b6610cb1565b600435600555005b3461016d575f36600319011261016d576109d6610cb1565b5f80546001600160a01b0319811682556001600160a01b03167f8be0079c531659141344cd1fd0a4f28419497f9722a3daafe3b4186f6b6457e08280a3005b3461016d575f36600319011261016d576020600554604051908152f35b3461016d57604036600319011261016d576004356001600160a01b0381169081900361016d57602435610a63610cb1565b60075491818310610acf575f8080848194610a7e8289610b90565b6007555af1610a8b610bd3565b5015610a9357005b60405162461bcd60e51b81526020600482015260146024820152731251881dda5d1a191c985dd85b0819985a5b195960621b6044820152606490fd5b60405162461bcd60e51b815260206004820152601b60248201527f496e73756666696369656e7420696e737572616e63652066756e6400000000006044820152606490fd5b3461016d57604036600319011261016d57610b2d610b7a565b6004355f52600360205260405f209060018060a01b03165f52602052608060405f208054906001810154906003600282015491015491604051938452602084015260408301526060820152f35b602435906001600160a01b038216820361016d57565b9190820391821161058057565b90601f8019910116810190811067ffffffffffffffff821117610bbf57604052565b634e487b7160e01b5f52604160045260245ffd5b3d15610c0d573d9067ffffffffffffffff8211610bbf5760405191610c02601f8201601f191660200184610b9d565b82523d5f602084013e565b606090565b600160ff1b8114610580575f0390565b81810392915f13801582851316918412161761058057565b81810292915f8212600160ff1b82141661058057818405149015171561058057565b811561056c57600160ff1b81145f19831416610580570590565b9190915f838201938412911290801582169115161761058057565b9190820180921161058057565b8181029291811591840414171561058057565b5f546001600160a01b03163303610cc457565b63118cdaa760e01b5f523360045260245ffd5b5f52600260205260405f206003810190610cf2825442610b90565b8015610d3a576002610d29610d20610d3393610603610d178754600189015490610c22565b60055490610c3a565b60045490610c5c565b9201918254610c76565b9055429055565b505050565b600154604051630ca625e360e31b815260048101839052929190602090849060249082906001600160a01b03165afa928315610ea9575f93610e75575b505f52600260205260405f20906040516080810181811067ffffffffffffffff821117610bbf57610de293600292610dda92604052815490818152606060036001850154948560208501528781015460408501520154910152610c22565b910590610c76565b670de0b6b3a7640000810290808205670de0b6b3a7640000149015171561058057600454610e0f91610c5c565b5f8112610e375790670de0b6b3a7640000610e2d610e349383610c9e565b0490610c91565b90565b610e4090610c12565b90670de0b6b3a76400008210610e5857600a91500490565b670de0b6b3a7640000610e6e610e349383610c9e565b0490610b90565b9092506020813d602011610ea1575b81610e9160209383610b9d565b8101031261016d5751915f610d7c565b3d9150610e84565b6040513d5f823e3d90fdfea264697066735822122079cd4540f332360335576aab96386e9ecfee027b3eada3454065c055c9f045e664736f6c63430008210033","linkReferences":{}},"methodIdentifiers":{"ONE()":"c2ee3a08","fundingVelocity()":"37ed6d8e","insuranceFund()":"b7902303","liquidate(bytes32,address)":"771b51d2","markets(bytes32)":"7564912b","maxLeverage()":"ae3302c2","modifyPosition(bytes32,int256)":"79633da3","oracle()":"7dc0d1d0","owner()":"8da5cb5b","positions(bytes32,address)":"29d88594","renounceOwnership()":"715018a6","setFundingVelocity(uint256)":"722edadf","setMaxLeverage(uint256)":"d3127e63","setSkewScale(uint256)":"ca3b1c81","skewScale()":"74968a1b","transferOwnership(address)":"f2fde38b","withdrawInsuranceFund(address,uint256)":"3296d983","withdrawMargin(bytes32,uint256)":"dcea2ab6"},"id":2}