{"abi":[{"type":"constructor","inputs":[{"name":"initialBasePrice","type":"uint256","internalType":"uint256"}],"stateMutability":"nonpayable"},{"type":"function","name":"K_FACTOR","inputs":[],"outputs":[{"name":"","type":"uint256","internalType":"uint256"}],"stateMutability":"view"},{"type":"function","name":"Z_SCORE","inputs":[],"outputs":[{"name":"","type":"uint256","internalType":"uint256"}],"stateMutability":"view"},{"type":"function","name":"activeAgents","inputs":[{"name":"","type":"uint256","internalType":"uint256"}],"outputs":[{"name":"","type":"bytes32","internalType":"bytes32"}],"stateMutability":"view"},{"type":"function","name":"agentExists","inputs":[{"name":"","type":"bytes32","internalType":"bytes32"}],"outputs":[{"name":"","type":"bool","internalType":"bool"}],"stateMutability":"view"},{"type":"function","name":"agentSkills","inputs":[{"name":"","type":"bytes32","internalType":"bytes32"}],"outputs":[{"name":"mu","type":"uint256","internalType":"uint256"},{"name":"sigma","type":"uint256","internalType":"uint256"},{"name":"lastUpdate","type":"uint256","internalType":"uint256"}],"stateMutability":"view"},{"type":"function","name":"basePrice","inputs":[],"outputs":[{"name":"","type":"uint256","internalType":"uint256"}],"stateMutability":"view"},{"type":"function","name":"getConservativeSkill","inputs":[{"name":"agentId","type":"bytes32","internalType":"bytes32"}],"outputs":[{"name":"","type":"int256","internalType":"int256"}],"stateMutability":"view"},{"type":"function","name":"getIndexPrice","inputs":[{"name":"agentId","type":"bytes32","internalType":"bytes32"}],"outputs":[{"name":"","type":"uint256","internalType":"uint256"}],"stateMutability":"view"},{"type":"function","name":"globalMeanMu","inputs":[],"outputs":[{"name":"","type":"uint256","internalType":"uint256"}],"stateMutability":"view"},{"type":"function","name":"owner","inputs":[],"outputs":[{"name":"","type":"address","internalType":"address"}],"stateMutability":"view"},{"type":"function","name":"renounceOwnership","inputs":[],"outputs":[],"stateMutability":"nonpayable"},{"type":"function","name":"transferOwnership","inputs":[{"name":"newOwner","type":"address","internalType":"address"}],"outputs":[],"stateMutability":"nonpayable"},{"type":"function","name":"updateAgentSkill","inputs":[{"name":"agentId","type":"bytes32","internalType":"bytes32"},{"name":"mu","type":"uint256","internalType":"uint256"},{"name":"sigma","type":"uint256","internalType":"uint256"}],"outputs":[],"stateMutability":"nonpayable"},{"type":"event","name":"OwnershipTransferred","inputs":[{"name":"previousOwner","type":"address","indexed":true,"internalType":"address"},{"name":"newOwner","type":"address","indexed":true,"internalType":"address"}],"anonymous":false},{"type":"event","name":"SkillUpdated","inputs":[{"name":"agentId","type":"bytes32","indexed":true,"internalType":"bytes32"},{"name":"mu","type":"uint256","indexed":false,"internalType":"uint256"},{"name":"sigma","type":"uint256","indexed":false,"internalType":"uint256"}],"anonymous":false},{"type":"error","name":"OwnableInvalidOwner","inputs":[{"name":"owner","type":"address","internalType":"address"}]},{"type":"error","name":"OwnableUnauthorizedAccount","inputs":[{"name":"account","type":"address","internalType":"address"}]}],"bytecode":{"object":"0x60a0346100ff57601f61081638819003918201601f19168301916001600160401b03831184841017610103578084926020946040528339810103126100ff575133156100ec575f8054336001600160a01b03198216811783556040519290916001600160a01b0316907f8be0079c531659141344cd1fd0a4f28419497f9722a3daafe3b4186f6b6457e09080a381156100b557506080526040516106fe9081610118823960805181818161014f01526104300152f35b62461bcd60e51b8152602060048201526012602482015271496e76616c6964206261736520707269636560701b6044820152606490fd5b631e4fbdf760e01b5f525f60045260245ffd5b5f80fd5b634e487b7160e01b5f52604160045260245ffdfe6080806040526004361015610012575f80fd5b5f3560e01c9081631e4fe13e1461054457508063520d5e251461050c5780635240a00f146104cb57806365312f18146103b5578063715018a61461035e57806377519b731461034257806377d8a1d71461031c5780638da5cb5b146102f5578063a5b925d2146102c6578063aafd33e61461018f578063c5d1f44714610172578063c7876ea4146101385763f2fde38b146100ab575f80fd5b34610134576020366003190112610134576004356001600160a01b03811690819003610134576100d9610656565b8015610121575f80546001600160a01b03198116831782556001600160a01b0316907f8be0079c531659141344cd1fd0a4f28419497f9722a3daafe3b4186f6b6457e09080a3005b631e4fbdf760e01b5f525f60045260245ffd5b5f80fd5b34610134575f3660031901126101345760206040517f00000000000000000000000000000000000000000000000000000000000000008152f35b34610134575f366003190112610134576020600454604051908152f35b34610134576060366003190112610134576004356044356024356101b1610656565b825f52600260205260ff60405f20541615610235575b6040907f2a15cdcf0c935e91a2e12bc76f5df00f267a5be78c3382f0e6856decc86168fa926101f46105a1565b82815260026020820183815285830190428252885f526001602052865f20935184555160018401555191015561022861067c565b82519182526020820152a2005b825f52600260205260405f20600160ff1982541617905560035490680100000000000000008210156102b2577f2a15cdcf0c935e91a2e12bc76f5df00f267a5be78c3382f0e6856decc86168fa926102958360016040950160035561055d565b81549060031b9087821b915f19901b1916179055925090506101c7565b634e487b7160e01b5f52604160045260245ffd5b34610134576020366003190112610134576004355f526002602052602060ff60405f2054166040519015158152f35b34610134575f366003190112610134575f546040516001600160a01b039091168152602090f35b3461013457602036600319011261013457602061033a6004356105c1565b604051908152f35b34610134575f3660031901126101345760206040516101f48152f35b34610134575f36600319011261013457610376610656565b5f80546001600160a01b0319811682556001600160a01b03167f8be0079c531659141344cd1fd0a4f28419497f9722a3daafe3b4186f6b6457e08280a3005b34610134576020366003190112610134576103dd6103d46004356105c1565b60045490610589565b670de0b6b3a7640000810290808205670de0b6b3a76400001490151715610474576101f49005670de0b6b3a76400005f82126104885750670de0b6b3a76400000180670de0b6b3a764000011610474575b7f000000000000000000000000000000000000000000000000000000000000000081810291818304149015171561047457602090670de0b6b3a764000060405191048152f35b634e487b7160e01b5f52601160045260245ffd5b90600160ff1b8114610474575f81900382116104ad575050662386f26fc1000061042e565b81019081111561042e57634e487b7160e01b5f52601160045260245ffd5b34610134576020366003190112610134576004355f526001602052606060405f20805490600260018201549101549060405192835260208301526040820152f35b34610134576020366003190112610134576004356003548110156101345761053560209161055d565b90549060031b1c604051908152f35b34610134575f3660031901126101345780600360209252f35b6003548110156105755760035f5260205f2001905f90565b634e487b7160e01b5f52603260045260245ffd5b81810392915f13801582851316918412161761047457565b604051906060820182811067ffffffffffffffff8211176102b257604052565b805f52600260205260ff60405f2054161561061f575f52600160205260405f206105e96105a1565b90805491828152604060026001840154938460208501520154910152806003029060038204036104745761061c91610589565b90565b60405162461bcd60e51b815260206004820152600f60248201526e1059d95b9d081b9bdd08199bdd5b99608a1b6044820152606490fd5b5f546001600160a01b0316330361066957565b63118cdaa760e01b5f523360045260245ffd5b60035480156106c5575f5f5b828110610696575004600455565b906106a08261055d565b90549060031b1c5f52600160205260405f205481018091116104745790600101610688565b5056fea26469706673582212205dbddd3de7c4b4e10c6b65f081a9814da17077e145e3110d0a2e5adf24e084d364736f6c63430008210033","linkReferences":{}},"methodIdentifiers":{"K_FACTOR()":"77519b73","Z_SCORE()":"1e4fe13e","activeAgents(uint256)":"520d5e25","agentExists(bytes32)":"a5b925d2","agentSkills(bytes32)":"5240a00f","basePrice()":"c7876ea4","getConservativeSkill(bytes32)":"77d8a1d7","getIndexPrice(bytes32)":"65312f18","globalMeanMu()":"c5d1f447","owner()":"8da5cb5b","renounceOwnership()":"715018a6","transferOwnership(address)":"f2fde38b","updateAgentSkill(bytes32,uint256,uint256)":"aafd33e6"},"id":4}