{"abi":[{"type":"constructor","inputs":[{"name":"_P0","type":"uint256","internalType":"uint256"}],"stateMutability":"nonpayable"},{"type":"function","name":"P0","inputs":[],"outputs":[{"name":"","type":"uint256","internalType":"uint256"}],"stateMutability":"view"},{"type":"function","name":"activeAgents","inputs":[{"name":"","type":"uint256","internalType":"uint256"}],"outputs":[{"name":"","type":"bytes32","internalType":"bytes32"}],"stateMutability":"view"},{"type":"function","name":"agentSkills","inputs":[{"name":"","type":"bytes32","internalType":"bytes32"}],"outputs":[{"name":"mu","type":"uint256","internalType":"uint256"},{"name":"sigma","type":"uint256","internalType":"uint256"},{"name":"lastUpdate","type":"uint256","internalType":"uint256"}],"stateMutability":"view"},{"type":"function","name":"getConservativeSkill","inputs":[{"name":"agentId","type":"bytes32","internalType":"bytes32"}],"outputs":[{"name":"","type":"int256","internalType":"int256"}],"stateMutability":"view"},{"type":"function","name":"getIndexPrice","inputs":[{"name":"agentId","type":"bytes32","internalType":"bytes32"}],"outputs":[{"name":"","type":"uint256","internalType":"uint256"}],"stateMutability":"view"},{"type":"function","name":"globalMeanMu","inputs":[],"outputs":[{"name":"","type":"uint256","internalType":"uint256"}],"stateMutability":"view"},{"type":"function","name":"kFactor","inputs":[],"outputs":[{"name":"","type":"uint256","internalType":"uint256"}],"stateMutability":"view"},{"type":"function","name":"owner","inputs":[],"outputs":[{"name":"","type":"address","internalType":"address"}],"stateMutability":"view"},{"type":"function","name":"renounceOwnership","inputs":[],"outputs":[],"stateMutability":"nonpayable"},{"type":"function","name":"transferOwnership","inputs":[{"name":"newOwner","type":"address","internalType":"address"}],"outputs":[],"stateMutability":"nonpayable"},{"type":"function","name":"updateAgentSkill","inputs":[{"name":"agentId","type":"bytes32","internalType":"bytes32"},{"name":"mu","type":"uint256","internalType":"uint256"},{"name":"sigma","type":"uint256","internalType":"uint256"}],"outputs":[],"stateMutability":"nonpayable"},{"type":"function","name":"zScore","inputs":[],"outputs":[{"name":"","type":"uint256","internalType":"uint256"}],"stateMutability":"view"},{"type":"event","name":"OwnershipTransferred","inputs":[{"name":"previousOwner","type":"address","indexed":true,"internalType":"address"},{"name":"newOwner","type":"address","indexed":true,"internalType":"address"}],"anonymous":false},{"type":"event","name":"SkillUpdated","inputs":[{"name":"agentId","type":"bytes32","indexed":true,"internalType":"bytes32"},{"name":"mu","type":"uint256","indexed":false,"internalType":"uint256"},{"name":"sigma","type":"uint256","indexed":false,"internalType":"uint256"}],"anonymous":false},{"type":"error","name":"OwnableInvalidOwner","inputs":[{"name":"owner","type":"address","internalType":"address"}]},{"type":"error","name":"OwnableUnauthorizedAccount","inputs":[{"name":"account","type":"address","internalType":"address"}]}],"bytecode":{"object":"0x60803460b657601f61077838819003918201601f19168301916001600160401b0383118484101760ba5780849260209460405283398101031260b65751331560a3575f8054336001600160a01b0319821681178355604051939290916001600160a01b0316907f8be0079c531659141344cd1fd0a4f28419497f9722a3daafe3b4186f6b6457e09080a360036004556101f46005556006556106a990816100cf8239f35b631e4fbdf760e01b5f525f60045260245ffd5b5f80fd5b634e487b7160e01b5f52604160045260245ffdfe6080806040526004361015610012575f80fd5b5f3560e01c908163342e4cbf146104e857508063520d5e25146104b05780635240a00f1461046f57806365312f1814610348578063715018a6146102f157806377d8a1d7146102cb578063857ade7c146102ae5780638da5cb5b14610287578063aafd33e614610167578063b3e7b0971461014a578063c5d1f4471461012d5763f2fde38b146100a0575f80fd5b34610129576020366003190112610129576004356001600160a01b03811690819003610129576100ce610601565b8015610116575f80546001600160a01b03198116831782556001600160a01b0316907f8be0079c531659141344cd1fd0a4f28419497f9722a3daafe3b4186f6b6457e09080a3005b631e4fbdf760e01b5f525f60045260245ffd5b5f80fd5b34610129575f366003190112610129576020600354604051908152f35b34610129575f366003190112610129576020600454604051908152f35b3461012957606036600319011261012957600435604435602435610189610601565b825f526001602052600260405f2001541561020d575b6040907f2a15cdcf0c935e91a2e12bc76f5df00f267a5be78c3382f0e6856decc86168fa926101cc610559565b82815260026020820183815285830190428252885f526001602052865f209351845551600184015551910155610200610627565b82519182526020820152a2005b6002549068010000000000000000821015610273577f2a15cdcf0c935e91a2e12bc76f5df00f267a5be78c3382f0e6856decc86168fa9261025683600160409501600255610502565b81549060031b9087821b915f19901b19161790559250905061019f565b634e487b7160e01b5f52604160045260245ffd5b34610129575f366003190112610129575f546040516001600160a01b039091168152602090f35b34610129575f366003190112610129576020600654604051908152f35b346101295760203660031901126101295760206102e9600435610579565b604051908152f35b34610129575f36600319011261012957610309610601565b5f80546001600160a01b0319811682556001600160a01b03167f8be0079c531659141344cd1fd0a4f28419497f9722a3daafe3b4186f6b6457e08280a3005b3461012957602036600319011261012957610370610367600435610579565b6003549061052e565b670de0b6b3a7640000810290808205670de0b6b3a764000014901517156103f75760055490811561045b57600160ff1b81145f198314166103f75705670de0b6b3a76400005f821261040b5750670de0b6b3a76400000180670de0b6b3a7640000116103f757670de0b6b3a76400006103ee6020925b600654610546565b04604051908152f35b634e487b7160e01b5f52601160045260245ffd5b90600160ff1b81146103f7575f819003821161043e5750506020670de0b6b3a76400006103ee662386f26fc100006103e6565b81019081116103f757670de0b6b3a76400006103ee6020926103e6565b634e487b7160e01b5f52601260045260245ffd5b34610129576020366003190112610129576004355f526001602052606060405f20805490600260018201549101549060405192835260208301526040820152f35b3461012957602036600319011261012957600435600254811015610129576104d9602091610502565b90549060031b1c604051908152f35b34610129575f366003190112610129576020906005548152f35b60025481101561051a5760025f5260205f2001905f90565b634e487b7160e01b5f52603260045260245ffd5b81810392915f1380158285131691841216176103f757565b818102929181159184041417156103f757565b604051906060820182811067ffffffffffffffff82111761027357604052565b5f52600160205260405f2061058c610559565b90805482526002600182015491602084019283520154806040840152156105ca576105c16105c7925191600454905190610546565b9061052e565b90565b60405162461bcd60e51b815260206004820152600f60248201526e1059d95b9d081b9bdd08199bdd5b99608a1b6044820152606490fd5b5f546001600160a01b0316330361061457565b63118cdaa760e01b5f523360045260245ffd5b6002548015610670575f5f5b828110610641575004600355565b9061064b82610502565b90549060031b1c5f52600160205260405f205481018091116103f75790600101610633565b5056fea2646970667358221220bbce4e1e2e643e4666ac23f9eb1d24f81b66a51e03fec1cd7a914b17f1e2140764736f6c63430008210033","linkReferences":{}},"methodIdentifiers":{"P0()":"857ade7c","activeAgents(uint256)":"520d5e25","agentSkills(bytes32)":"5240a00f","getConservativeSkill(bytes32)":"77d8a1d7","getIndexPrice(bytes32)":"65312f18","globalMeanMu()":"c5d1f447","kFactor()":"342e4cbf","owner()":"8da5cb5b","renounceOwnership()":"715018a6","transferOwnership(address)":"f2fde38b","updateAgentSkill(bytes32,uint256,uint256)":"aafd33e6","zScore()":"b3e7b097"},"id":0}