{"abi":[{"type":"constructor","inputs":[{"name":"initialBasePrice","type":"uint256","internalType":"uint256"}],"stateMutability":"nonpayable"},{"type":"function","name":"K_FACTOR","inputs":[],"outputs":[{"name":"","type":"uint256","internalType":"uint256"}],"stateMutability":"view"},{"type":"function","name":"Z_SCORE","inputs":[],"outputs":[{"name":"","type":"uint256","internalType":"uint256"}],"stateMutability":"view"},{"type":"function","name":"activeAgents","inputs":[{"name":"","type":"uint256","internalType":"uint256"}],"outputs":[{"name":"","type":"bytes32","internalType":"bytes32"}],"stateMutability":"view"},{"type":"function","name":"agentSkills","inputs":[{"name":"","type":"bytes32","internalType":"bytes32"}],"outputs":[{"name":"mu","type":"uint256","internalType":"uint256"},{"name":"sigma","type":"uint256","internalType":"uint256"},{"name":"lastUpdate","type":"uint256","internalType":"uint256"}],"stateMutability":"view"},{"type":"function","name":"basePrice","inputs":[],"outputs":[{"name":"","type":"uint256","internalType":"uint256"}],"stateMutability":"view"},{"type":"function","name":"getConservativeSkill","inputs":[{"name":"agentId","type":"bytes32","internalType":"bytes32"}],"outputs":[{"name":"","type":"int256","internalType":"int256"}],"stateMutability":"view"},{"type":"function","name":"getIndexPrice","inputs":[{"name":"agentId","type":"bytes32","internalType":"bytes32"}],"outputs":[{"name":"","type":"uint256","internalType":"uint256"}],"stateMutability":"view"},{"type":"function","name":"globalMeanMu","inputs":[],"outputs":[{"name":"","type":"uint256","internalType":"uint256"}],"stateMutability":"view"},{"type":"function","name":"owner","inputs":[],"outputs":[{"name":"","type":"address","internalType":"address"}],"stateMutability":"view"},{"type":"function","name":"renounceOwnership","inputs":[],"outputs":[],"stateMutability":"nonpayable"},{"type":"function","name":"transferOwnership","inputs":[{"name":"newOwner","type":"address","internalType":"address"}],"outputs":[],"stateMutability":"nonpayable"},{"type":"function","name":"updateAgentSkill","inputs":[{"name":"agentId","type":"bytes32","internalType":"bytes32"},{"name":"mu","type":"uint256","internalType":"uint256"},{"name":"sigma","type":"uint256","internalType":"uint256"}],"outputs":[],"stateMutability":"nonpayable"},{"type":"event","name":"OwnershipTransferred","inputs":[{"name":"previousOwner","type":"address","indexed":true,"internalType":"address"},{"name":"newOwner","type":"address","indexed":true,"internalType":"address"}],"anonymous":false},{"type":"event","name":"SkillUpdated","inputs":[{"name":"agentId","type":"bytes32","indexed":true,"internalType":"bytes32"},{"name":"mu","type":"uint256","indexed":false,"internalType":"uint256"},{"name":"sigma","type":"uint256","indexed":false,"internalType":"uint256"}],"anonymous":false},{"type":"error","name":"OwnableInvalidOwner","inputs":[{"name":"owner","type":"address","internalType":"address"}]},{"type":"error","name":"OwnableUnauthorizedAccount","inputs":[{"name":"account","type":"address","internalType":"address"}]}],"bytecode":{"object":"0x60a0346100ff57601f6107b738819003918201601f19168301916001600160401b03831184841017610103578084926020946040528339810103126100ff575133156100ec575f8054336001600160a01b03198216811783556040519290916001600160a01b0316907f8be0079c531659141344cd1fd0a4f28419497f9722a3daafe3b4186f6b6457e09080a381156100b5575060805260405161069f9081610118823960805181818161014401526103df0152f35b62461bcd60e51b8152602060048201526012602482015271496e76616c6964206261736520707269636560701b6044820152606490fd5b631e4fbdf760e01b5f525f60045260245ffd5b5f80fd5b634e487b7160e01b5f52604160045260245ffdfe6080806040526004361015610012575f80fd5b5f3560e01c9081631e4fe13e146104f357508063520d5e25146104bb5780635240a00f1461047a57806365312f1814610364578063715018a61461030d57806377519b73146102f157806377d8a1d7146102cb5780638da5cb5b146102a4578063aafd33e614610184578063c5d1f44714610167578063c7876ea41461012d5763f2fde38b146100a0575f80fd5b34610129576020366003190112610129576004356001600160a01b03811690819003610129576100ce6105f7565b8015610116575f80546001600160a01b03198116831782556001600160a01b0316907f8be0079c531659141344cd1fd0a4f28419497f9722a3daafe3b4186f6b6457e09080a3005b631e4fbdf760e01b5f525f60045260245ffd5b5f80fd5b34610129575f3660031901126101295760206040517f00000000000000000000000000000000000000000000000000000000000000008152f35b34610129575f366003190112610129576020600354604051908152f35b34610129576060366003190112610129576004356044356024356101a66105f7565b825f526001602052600260405f2001541561022a575b6040907f2a15cdcf0c935e91a2e12bc76f5df00f267a5be78c3382f0e6856decc86168fa926101e9610550565b82815260026020820183815285830190428252885f526001602052865f20935184555160018401555191015561021d61061d565b82519182526020820152a2005b6002549068010000000000000000821015610290577f2a15cdcf0c935e91a2e12bc76f5df00f267a5be78c3382f0e6856decc86168fa926102738360016040950160025561050c565b81549060031b9087821b915f19901b1916179055925090506101bc565b634e487b7160e01b5f52604160045260245ffd5b34610129575f366003190112610129575f546040516001600160a01b039091168152602090f35b346101295760203660031901126101295760206102e9600435610570565b604051908152f35b34610129575f3660031901126101295760206040516101f48152f35b34610129575f366003190112610129576103256105f7565b5f80546001600160a01b0319811682556001600160a01b03167f8be0079c531659141344cd1fd0a4f28419497f9722a3daafe3b4186f6b6457e08280a3005b346101295760203660031901126101295761038c610383600435610570565b60035490610538565b670de0b6b3a7640000810290808205670de0b6b3a76400001490151715610423576101f49005670de0b6b3a76400005f82126104375750670de0b6b3a76400000180670de0b6b3a764000011610423575b7f000000000000000000000000000000000000000000000000000000000000000081810291818304149015171561042357602090670de0b6b3a764000060405191048152f35b634e487b7160e01b5f52601160045260245ffd5b90600160ff1b8114610423575f819003821161045c575050662386f26fc100006103dd565b8101908111156103dd57634e487b7160e01b5f52601160045260245ffd5b34610129576020366003190112610129576004355f526001602052606060405f20805490600260018201549101549060405192835260208301526040820152f35b3461012957602036600319011261012957600435600254811015610129576104e460209161050c565b90549060031b1c604051908152f35b34610129575f3660031901126101295780600360209252f35b6002548110156105245760025f5260205f2001905f90565b634e487b7160e01b5f52603260045260245ffd5b81810392915f13801582851316918412161761042357565b604051906060820182811067ffffffffffffffff82111761029057604052565b5f52600160205260405f20610583610550565b815481526002600183015492602083019384520154806040830152156105c05751905180600302906003820403610423576105bd91610538565b90565b60405162461bcd60e51b815260206004820152600f60248201526e1059d95b9d081b9bdd08199bdd5b99608a1b6044820152606490fd5b5f546001600160a01b0316330361060a57565b63118cdaa760e01b5f523360045260245ffd5b6002548015610666575f5f5b828110610637575004600355565b906106418261050c565b90549060031b1c5f52600160205260405f205481018091116104235790600101610629565b5056fea264697066735822122066af2551b3291e4c059ca99a68ebcf26d7ccb68c7a272d34bcb175f6238b21f364736f6c63430008210033","linkReferences":{}},"methodIdentifiers":{"K_FACTOR()":"77519b73","Z_SCORE()":"1e4fe13e","activeAgents(uint256)":"520d5e25","agentSkills(bytes32)":"5240a00f","basePrice()":"c7876ea4","getConservativeSkill(bytes32)":"77d8a1d7","getIndexPrice(bytes32)":"65312f18","globalMeanMu()":"c5d1f447","owner()":"8da5cb5b","renounceOwnership()":"715018a6","transferOwnership(address)":"f2fde38b","updateAgentSkill(bytes32,uint256,uint256)":"aafd33e6"},"id":4}