{"abi":[{"type":"constructor","inputs":[{"name":"_treasury","type":"address","internalType":"address"},{"name":"_marketMaker","type":"address","internalType":"address"}],"stateMutability":"nonpayable"},{"type":"receive","stateMutability":"payable"},{"type":"function","name":"MAX_FEE_BPS","inputs":[],"outputs":[{"name":"","type":"uint256","internalType":"uint256"}],"stateMutability":"view"},{"type":"function","name":"admin","inputs":[],"outputs":[{"name":"","type":"address","internalType":"address"}],"stateMutability":"view"},{"type":"function","name":"bestAsks","inputs":[{"name":"","type":"uint256","internalType":"uint256"}],"outputs":[{"name":"","type":"uint16","internalType":"uint16"}],"stateMutability":"view"},{"type":"function","name":"bestBids","inputs":[{"name":"","type":"uint256","internalType":"uint256"}],"outputs":[{"name":"","type":"uint16","internalType":"uint16"}],"stateMutability":"view"},{"type":"function","name":"cancelOrder","inputs":[{"name":"matchId","type":"uint256","internalType":"uint256"},{"name":"orderId","type":"uint64","internalType":"uint64"},{"name":"","type":"uint16","internalType":"uint16"}],"outputs":[],"stateMutability":"nonpayable"},{"type":"function","name":"claim","inputs":[{"name":"matchId","type":"uint256","internalType":"uint256"}],"outputs":[],"stateMutability":"nonpayable"},{"type":"function","name":"clearGarbage","inputs":[{"name":"matchId","type":"uint256","internalType":"uint256"},{"name":"price","type":"uint16","internalType":"uint16"},{"name":"maxOrders","type":"uint256","internalType":"uint256"}],"outputs":[],"stateMutability":"nonpayable"},{"type":"function","name":"createMatch","inputs":[],"outputs":[{"name":"","type":"uint256","internalType":"uint256"}],"stateMutability":"nonpayable"},{"type":"function","name":"feeBps","inputs":[],"outputs":[{"name":"","type":"uint256","internalType":"uint256"}],"stateMutability":"view"},{"type":"function","name":"marketMaker","inputs":[],"outputs":[{"name":"","type":"address","internalType":"address"}],"stateMutability":"view"},{"type":"function","name":"matches","inputs":[{"name":"","type":"uint256","internalType":"uint256"}],"outputs":[{"name":"status","type":"uint8","internalType":"enum GoldClob.MatchStatus"},{"name":"winner","type":"uint8","internalType":"enum GoldClob.Side"},{"name":"yesPool","type":"uint256","internalType":"uint256"},{"name":"noPool","type":"uint256","internalType":"uint256"}],"stateMutability":"view"},{"type":"function","name":"nextMatchId","inputs":[],"outputs":[{"name":"","type":"uint256","internalType":"uint256"}],"stateMutability":"view"},{"type":"function","name":"nextOrderId","inputs":[],"outputs":[{"name":"","type":"uint64","internalType":"uint64"}],"stateMutability":"view"},{"type":"function","name":"orderQueues","inputs":[{"name":"","type":"uint256","internalType":"uint256"},{"name":"","type":"uint16","internalType":"uint16"}],"outputs":[{"name":"head","type":"uint64","internalType":"uint64"},{"name":"tail","type":"uint64","internalType":"uint64"}],"stateMutability":"view"},{"type":"function","name":"orders","inputs":[{"name":"","type":"uint64","internalType":"uint64"}],"outputs":[{"name":"id","type":"uint64","internalType":"uint64"},{"name":"price","type":"uint16","internalType":"uint16"},{"name":"isBuy","type":"bool","internalType":"bool"},{"name":"maker","type":"address","internalType":"address"},{"name":"amount","type":"uint128","internalType":"uint128"},{"name":"filled","type":"uint128","internalType":"uint128"},{"name":"matchId","type":"uint256","internalType":"uint256"}],"stateMutability":"view"},{"type":"function","name":"placeOrder","inputs":[{"name":"matchId","type":"uint256","internalType":"uint256"},{"name":"isBuy","type":"bool","internalType":"bool"},{"name":"price","type":"uint16","internalType":"uint16"},{"name":"amount","type":"uint256","internalType":"uint256"}],"outputs":[],"stateMutability":"payable"},{"type":"function","name":"positions","inputs":[{"name":"","type":"uint256","internalType":"uint256"},{"name":"","type":"address","internalType":"address"}],"outputs":[{"name":"yesShares","type":"uint256","internalType":"uint256"},{"name":"noShares","type":"uint256","internalType":"uint256"}],"stateMutability":"view"},{"type":"function","name":"resolveMatch","inputs":[{"name":"matchId","type":"uint256","internalType":"uint256"},{"name":"winner","type":"uint8","internalType":"enum GoldClob.Side"}],"outputs":[],"stateMutability":"nonpayable"},{"type":"function","name":"setFeeConfig","inputs":[{"name":"_tradeTreasuryFeeBps","type":"uint256","internalType":"uint256"},{"name":"_tradeMarketMakerFeeBps","type":"uint256","internalType":"uint256"},{"name":"_winningsMarketMakerFeeBps","type":"uint256","internalType":"uint256"}],"outputs":[],"stateMutability":"nonpayable"},{"type":"function","name":"tradeMarketMakerFeeBps","inputs":[],"outputs":[{"name":"","type":"uint256","internalType":"uint256"}],"stateMutability":"view"},{"type":"function","name":"tradeTreasuryFeeBps","inputs":[],"outputs":[{"name":"","type":"uint256","internalType":"uint256"}],"stateMutability":"view"},{"type":"function","name":"treasury","inputs":[],"outputs":[{"name":"","type":"address","internalType":"address"}],"stateMutability":"view"},{"type":"function","name":"winningsMarketMakerFeeBps","inputs":[],"outputs":[{"name":"","type":"uint256","internalType":"uint256"}],"stateMutability":"view"},{"type":"event","name":"FeeConfigUpdated","inputs":[{"name":"tradeTreasuryFeeBps","type":"uint256","indexed":false,"internalType":"uint256"},{"name":"tradeMarketMakerFeeBps","type":"uint256","indexed":false,"internalType":"uint256"},{"name":"winningsMarketMakerFeeBps","type":"uint256","indexed":false,"internalType":"uint256"}],"anonymous":false},{"type":"event","name":"MatchCreated","inputs":[{"name":"matchId","type":"uint256","indexed":true,"internalType":"uint256"}],"anonymous":false},{"type":"event","name":"MatchResolved","inputs":[{"name":"matchId","type":"uint256","indexed":true,"internalType":"uint256"},{"name":"winner","type":"uint8","indexed":false,"internalType":"enum GoldClob.Side"}],"anonymous":false},{"type":"event","name":"OrderCancelled","inputs":[{"name":"matchId","type":"uint256","indexed":true,"internalType":"uint256"},{"name":"orderId","type":"uint64","indexed":true,"internalType":"uint64"}],"anonymous":false},{"type":"event","name":"OrderMatched","inputs":[{"name":"matchId","type":"uint256","indexed":true,"internalType":"uint256"},{"name":"makerOrderId","type":"uint64","indexed":false,"internalType":"uint64"},{"name":"takerOrderId","type":"uint64","indexed":false,"internalType":"uint64"},{"name":"matchedAmount","type":"uint256","indexed":false,"internalType":"uint256"},{"name":"price","type":"uint16","indexed":false,"internalType":"uint16"}],"anonymous":false},{"type":"event","name":"OrderPlaced","inputs":[{"name":"matchId","type":"uint256","indexed":true,"internalType":"uint256"},{"name":"orderId","type":"uint64","indexed":true,"internalType":"uint64"},{"name":"maker","type":"address","indexed":true,"internalType":"address"},{"name":"isBuy","type":"bool","indexed":false,"internalType":"bool"},{"name":"price","type":"uint16","indexed":false,"internalType":"uint16"},{"name":"amount","type":"uint256","indexed":false,"internalType":"uint256"}],"anonymous":false},{"type":"error","name":"ReentrancyGuardReentrantCall","inputs":[]}],"bytecode":{"object":"0x60e0346101c957601f611dd938819003918201601f19168301916001600160401b038311848410176101cd5780849260409485528339810103126101c957610052602061004b836101e1565b92016101e1565b60015f8190556004819055600680546001600160401b0319169091179055906001600160a01b03811615610184576001600160a01b038216156101355760805260a0523360c0526064600155606460025560c86003557f7db0317b48d5cfa60fe5406abab969900e8dfb1ecbe177a05af0595780cb85c76060604051606481526064602082015260c86040820152a1604051611be390816101f682396080518181816107ac0152611172015260a0518181816111420152818161143e015261189e015260c05181818161013a015281816104660152818161158e01526116e90152f35b60405162461bcd60e51b815260206004820152602160248201527f496e76616c6964206d61726b6574206d616b6572207a65726f206164647265736044820152607360f81b6064820152608490fd5b60405162461bcd60e51b815260206004820152601d60248201527f496e76616c6964207472656173757279207a65726f20616464726573730000006044820152606490fd5b5f80fd5b634e487b7160e01b5f52604160045260245ffd5b51906001600160a01b03821682036101c95756fe608080604052600436101561001c575b50361561001a575f80fd5b005b5f3560e01c9081631f21f9af1461188c575080631fc6f9ad146116c957806320d54ecf1461156857806324a9d8531461153f5780632a58b330146115195780632ebe714f146114fc578063379607f5146113855780634768d4ef146113225780634befb861146107db57806361d027b314610797578063830be3381461077a57806385489dc81461075d5780639fa5d00f14610594578063a0cc641a14610450578063a469dffa146103b6578063af230d6b14610365578063b0843f401461025a578063b51930501461022c578063c5adf7c91461020f578063d55be8c6146101f3578063e0773d11146101c5578063e684d7181461016d5763f851a44014610125575f61000f565b34610169575f366003190112610169576040517f00000000000000000000000000000000000000000000000000000000000000006001600160a01b03168152602090f35b5f80fd5b34610169576040366003190112610169576024356001600160a01b0381168103610169576004355f52600860205260405f209060018060a01b03165f526020526040805f206001815491015482519182526020820152f35b34610169576020366003190112610169576004355f52600a602052602061ffff60405f205416604051908152f35b34610169575f3660031901126101695760206040516127108152f35b34610169575f366003190112610169576020600454604051908152f35b34610169576020366003190112610169576004355f52600b602052602061ffff60405f205416604051908152f35b34610169576060366003190112610169576004356102766118fc565b9060443590610283611a63565b805f5260056020526102a7600160ff60405f2054166102a1816118cd565b14611991565b805f52600960205260405f2061ffff84165f5260205260405f20915f9060018401915b84546001600160401b038082169160401c1681108061035c575b15610350576001600160401b03165f52826020526001600160401b0360405f2054165f526007602052600160405f2001546001600160801b0381169060801c10155f146103435761033e906103398786611b26565b6119f8565b6102ca565b5050505050505b60015f55005b5050505050505061034a565b508282106102e4565b346101695760403660031901126101695761037e6118fc565b6004355f52600960205261ffff60405f2091165f526020526040805f20546001600160401b038251918181168352831c166020820152f35b34610169576020366003190112610169576004356001600160401b038116809103610169575f52600760205260e060405f208054906002600182015491015490604051926001600160401b038116845261ffff8160401c16602085015260ff8160501c161515604085015260018060a01b039060581c1660608401526001600160801b038116608084015260801c60a083015260c0820152f35b34610169575f36600319011261016957610494337f00000000000000000000000000000000000000000000000000000000000000006001600160a01b03161461190d565b6004546104a0816119f8565b6004556040519060808201918083106001600160401b03841117610580576020926040526001815260028382015f8152604083015f815261051d60608501925f8452865f526005885260405f2095516104f8816118cd565b610501816118cd565b60ff8019885416911617865551610517816118cd565b85611945565b51600184015551910155805f52600a825260405f2061ffff198154169055805f52600b825260405f206103e861ffff1982541617905560405190807f029c42c1ae2efa2f406e0681e1f940dde3568cd96a1ecf3715dc1191f0d3edbc5f80a28152f35b634e487b7160e01b5f52604160045260245ffd5b3461016957606036600319011261016957600435602435906001600160401b038216809203610169576105c56118eb565b506105ce611a63565b5f828152600760205260409020805460581c6001600160a01b0316330361072c57816002820154036106f957600181018054906001600160801b038260801c9216808310156106c3576103e893610653826001600160801b0361063761066e9761ffff96611a06565b1694906001600160801b0382549181199060801b169116179055565b5460ff8160501c165f146106b05760401c81165b1690611971565b04806106a0575b507f051c886b3e3b1ec09c73063f845a2f371275fb3d788914ead98645e3996962e25f80a360015f55005b6106aa9033611a81565b82610675565b816106be9160401c166119ce565b610667565b60405162461bcd60e51b815260206004820152600e60248201526d105b1c9958591e48199a5b1b195960921b6044820152606490fd5b60405162461bcd60e51b815260206004820152600b60248201526a0aee4dedcce40dac2e8c6d60ab1b6044820152606490fd5b60405162461bcd60e51b81526020600482015260096024820152682737ba1036b0b5b2b960b91b6044820152606490fd5b34610169575f366003190112610169576020600154604051908152f35b34610169575f366003190112610169576020600354604051908152f35b34610169575f366003190112610169576040517f00000000000000000000000000000000000000000000000000000000000000006001600160a01b03168152602090f35b608036600319011261016957602435801580159060043590828403610169576108026118eb565b9360643561080e611a63565b835f52600560205261082c600160ff60405f2054166102a1816118cd565b61ffff86169081151580611317575b156112e25780156112ac576001600160801b0381116112755782156112645761ffff875b166103e861086d8284611971565b0661121f5761087f6103e89183611971565b0480156111eb576108bd9061271061089960015483611971565b049182916108b86127106108af60025484611971565b04938492611964565b611964565b9081341061119c57826108dd9361116c575b508061113c575b5034611984565b8061112c575b5080965f965f92855f14610e9b575f888152600b6020526040902054959861ffff9096169633965b8b151580610e8d575b80610e7e575b80610e74575b15610ba457895f52600960205260405f2061ffff8a165f5260205260405f2080546001600160401b038082169160401c168114610b765760019d916001600160401b038f92165f52016020526001600160401b0360405f20541690815f52600760205260405f209d8e019182546001600160801b0381169060801c1015610b5e57908c91816001600160801b03806109c087548060801c93849116611a06565b16808311610b54575b50610a1491610a0f6109e686936001600160801b03851690611a26565b88546001600160801b031660809190911b6fffffffffffffffffffffffffffffffff1916178855565b611984565b9f835f52600860205260405f209060018060a01b03905460581c1660018060a01b03165f52602052600160405f2001610a4e838254611964565b9055825f52600860205260405f208c5f5260205260405f20610a71838254611964565b90558c8961ffff82168d11610afa575b50600654604080516001600160401b03948516815293909116602084015282019290925261ffff9091166060820152610ae8939291905f516020611b8e5f395f51905f529080608081015b0390a2546001600160801b0381169060801c14610af0576119f8565b995b9961090b565b6103398a8c611b26565b610b1461ffff610b0d846103e8946119e2565b1685611971565b0480610b22575b5089610a81565b91610acc610b465f516020611b8e5f395f51905f5294610ae899989796949e611964565b9c9294959697505091610b1b565b9350610a146109c9565b509c5050610b70906103398a8c611b26565b99610aea565b5050999761ffff1661ffff8114610b905760010197610aea565b634e487b7160e01b5f52601160045260245ffd5b50949550979291509794865f52600b60205261ffff60405f20911661ffff198254161790555b80610e64575b5083610bdc5760015f55005b600654956001600160401b038716966001600160401b03610bfc89611a46565b16906001600160401b031916176006556001600160801b03610c1e8683611984565b16906040519160e08301908382106001600160401b03831117610580576002926001600160801b03610d1c928b946040528c87528d8d602089018c815260408a0192835260608a01913383528560808c019716875260a08b0194855260c08b019889525f5260076020526001600160401b038060405f209b5116166001600160401b03198b5416178a55519169ffff00000000000000008a549160ff60501b9051151560501b1692600160581b600160f81b03905160581b169360401b16906001600160401b0360ff60f81b011617171787558160018801935116821984541617835551166001600160801b0382549181199060801b169116179055565b51910155845f52600960205260405f20835f5260205260405f206001600160401b0380825460401c16165f526001810160205260405f206001600160401b0388166001600160401b0319825416179055805467ffffffffffffffff60401b610d8f6001600160401b038360401c16611a46565b60401b169067ffffffffffffffff60401b191617905580610e4b575b15610e0b5750825f52600a60205260405f208161ffff198254161790555b604051948552602085015260408401527fcf3f5c02856f5aa6ecb3ef9dde51876fbc40cfc4dd36c4e69407d11c1a8cbae060603394a48080808080808061034a565b80610e32575b15610dc957825f52600b60205260405f208161ffff19825416179055610dc9565b50825f52600b60205261ffff60405f2054168110610e11565b50835f52600a60205261ffff60405f2054168211610dab565b610e6e9033611a81565b87610bd0565b5060648110610920565b506103e861ffff8a161061091a565b508661ffff8a161115610914565b5f888152600a6020526040902054959861ffff9096169633965b8b15158061111e575b80611111575b80611107575b156110dd57895f52600960205260405f2061ffff8a165f5260205260405f2080546001600160401b038082169160401c1681146110c65760019d916001600160401b038f92165f52016020526001600160401b0360405f20541690815f52600760205260405f209d8e019182546001600160801b0381169060801c10156110ae57908c91816001600160801b0380610f6a87548060801c93849116611a06565b168083116110a4575b50610f9091610a0f6109e686936001600160801b03851690611a26565b9f835f52600860205260405f209060018060a01b03905460581c1660018060a01b03165f5260205260405f20610fc7838254611964565b9055825f52600860205260405f208c5f52602052600160405f2001610fed838254611964565b90558c8b61ffff821611611052575b600654604080516001600160401b03948516815293909116602084015282019290925261ffff909116606082015261104a939291905f516020611b8e5f395f51905f52908060808101610acc565b995b99610eb5565b6103e861106561ffff610b0d8d856119e2565b0480611072575b50610ffc565b91610acc6110965f516020611b8e5f395f51905f529461104a99989796949e611964565b9c929495969750509161106c565b9350610f90610f73565b509c50506110c0906103398a8c611b26565b9961104c565b5050999761ffff168015610b90575f19019761104c565b50949550979291509794865f52600a60205261ffff60405f20911661ffff19825416179055610bca565b5060648110610eca565b5061ffff89161515610ec4565b508661ffff8a161015610ebe565b6111369033611a81565b876108e3565b611166907f0000000000000000000000000000000000000000000000000000000000000000611a81565b896108d6565b611196907f0000000000000000000000000000000000000000000000000000000000000000611a81565b8a6108cf565b60405162461bcd60e51b815260206004820152602160248201527f496e73756666696369656e74206e61746976652063757272656e63792073656e6044820152601d60fa1b6064820152608490fd5b60405162461bcd60e51b815260206004820152600c60248201526b436f737420746f6f206c6f7760a01b6044820152606490fd5b60405162461bcd60e51b815260206004820152601c60248201527f416d6f756e742f507269636520707265636973696f6e206572726f72000000006044820152606490fd5b61ffff611270886119ce565b61085f565b60405162461bcd60e51b815260206004820152600f60248201526e416d6f756e74206f766572666c6f7760881b6044820152606490fd5b60405162461bcd60e51b815260206004820152600e60248201526d125b9d985b1a5908185b5bdd5b9d60921b6044820152606490fd5b60405162461bcd60e51b815260206004820152600d60248201526c496e76616c696420707269636560981b6044820152606490fd5b506103e8821061083b565b34610169576020366003190112610169576004355f526005602052608060405f2080549060ff8083169260081c1690600260018201549101549160405193611369816118cd565b8452611374816118cd565b602084015260408301526060820152f35b34610169576020366003190112610169576004356113a1611a63565b805f526005602052600260ff60405f2054166113bc816118cd565b036114c8575f81815260086020818152604080842033855282528084209484526005909152822054919291901c60ff166113f5816118cd565b600181036114a0575090505f815491555b80156114685761034a9061142a61271061142260035484611971565b048092611984565b9080611438575b5033611a81565b611462907f0000000000000000000000000000000000000000000000000000000000000000611a81565b82611431565b60405162461bcd60e51b815260206004820152601060248201526f4e6f7468696e6720746f20636c61696d60801b6044820152606490fd5b6002906114ac816118cd565b146114b8575b50611406565b60019150015f81549155816114b2565b60405162461bcd60e51b815260206004820152600c60248201526b139bdd081c995cdbdb1d995960a21b6044820152606490fd5b34610169575f366003190112610169576020600254604051908152f35b34610169575f3660031901126101695760206001600160401b0360065416604051908152f35b34610169575f36600319011261016957602061156060015460025490611964565b604051908152f35b34610169576040366003190112610169576004356024356003811015610169576115bc337f00000000000000000000000000000000000000000000000000000000000000006001600160a01b03161461190d565b815f526005602052600160ff60405f2054166115d7816118cd565b03611699576115e5816118cd565b600181148015611686575b15611650575f828152600560209081526040909120805460ff191660021781557fde1c752173fee6bd3976fb1f165361c647fffc7a33987556b7f54b6a2de08ece929061163e908290611945565b6040519061164b816118cd565b8152a2005b60405162461bcd60e51b815260206004820152600e60248201526d24b73b30b634b2103bb4b73732b960911b6044820152606490fd5b50611690816118cd565b600281146115f0565b60405162461bcd60e51b81526020600482015260086024820152672737ba1037b832b760c11b6044820152606490fd5b3461016957606036600319011261016957604435602435600435611717337f00000000000000000000000000000000000000000000000000000000000000006001600160a01b03161461190d565b612710811161184757612710821161180a576127106117368383611964565b116117c5576127108311611788577f7db0317b48d5cfa60fe5406abab969900e8dfb1ecbe177a05af0595780cb85c79260609282600155806002558160035560405192835260208301526040820152a1005b60405162461bcd60e51b81526020600482015260156024820152740aed2dcdcd2dccee640cccaca40e8dede40d0d2ced605b1b6044820152606490fd5b60405162461bcd60e51b815260206004820152601860248201527f546f74616c2074726164652066656520746f6f206869676800000000000000006044820152606490fd5b60405162461bcd60e51b81526020600482015260156024820152740a8e4c2c8ca409a9a40cccaca40e8dede40d0d2ced605b1b6044820152606490fd5b60405162461bcd60e51b815260206004820152601b60248201527f54726164652074726561737572792066656520746f6f206869676800000000006044820152606490fd5b34610169575f366003190112610169577f00000000000000000000000000000000000000000000000000000000000000006001600160a01b03168152602090f35b600311156118d757565b634e487b7160e01b5f52602160045260245ffd5b6044359061ffff8216820361016957565b6024359061ffff8216820361016957565b1561191457565b60405162461bcd60e51b81526020600482015260096024820152682737ba1030b236b4b760b91b6044820152606490fd5b9061194f816118cd565b61ff0082549160081b169061ff001916179055565b91908201809211610b9057565b81810292918115918404141715610b9057565b91908203918211610b9057565b1561199857565b60405162461bcd60e51b815260206004820152600e60248201526d26b0ba31b4103737ba1037b832b760911b6044820152606490fd5b61ffff166103e8039061ffff8211610b9057565b9061ffff8091169116039061ffff8211610b9057565b5f198114610b905760010190565b906001600160801b03809116911603906001600160801b038211610b9057565b906001600160801b03809116911601906001600160801b038211610b9057565b6001600160401b03166001600160401b038114610b905760010190565b60025f5414611a725760025f55565b633ee5aeb560e01b5f5260045ffd5b5f918291829182916001600160a01b03165af13d15611b21573d6001600160401b0381116105805760405190601f8101601f19908116603f011682016001600160401b038111838210176105805760405281525f60203d92013e5b15611ae357565b60405162461bcd60e51b815260206004820152601660248201527513985d1a5d99481d1c985b9cd9995c8819985a5b195960521b6044820152606490fd5b611adc565b5f52600960205261ffff60405f2091165f5260205260405f206001600160401b0380825416165f526001810160205260405f206001600160401b031981541690556001600160401b03611b7b81835416611a46565b166001600160401b031982541617905556fee00b64442e6da2ddd996fa6a905bea76c618c548d19fa4fa3364fadb293cefe5a2646970667358221220972e08b4d561dc4f8e916a6a140ca66e53a5d422f2819e9eb6e3dbfe8a9a0b8764736f6c63430008210033","linkReferences":{}},"methodIdentifiers":{"MAX_FEE_BPS()":"d55be8c6","admin()":"f851a440","bestAsks(uint256)":"b5193050","bestBids(uint256)":"e0773d11","cancelOrder(uint256,uint64,uint16)":"9fa5d00f","claim(uint256)":"379607f5","clearGarbage(uint256,uint16,uint256)":"b0843f40","createMatch()":"a0cc641a","feeBps()":"24a9d853","marketMaker()":"1f21f9af","matches(uint256)":"4768d4ef","nextMatchId()":"c5adf7c9","nextOrderId()":"2a58b330","orderQueues(uint256,uint16)":"af230d6b","orders(uint64)":"a469dffa","placeOrder(uint256,bool,uint16,uint256)":"4befb861","positions(uint256,address)":"e684d718","resolveMatch(uint256,uint8)":"20d54ecf","setFeeConfig(uint256,uint256,uint256)":"1fc6f9ad","tradeMarketMakerFeeBps()":"2ebe714f","tradeTreasuryFeeBps()":"85489dc8","treasury()":"61d027b3","winningsMarketMakerFeeBps()":"830be338"},"id":0}