{"abi":[{"type":"constructor","inputs":[{"name":"_treasury","type":"address","internalType":"address"},{"name":"_marketMaker","type":"address","internalType":"address"}],"stateMutability":"nonpayable"},{"type":"receive","stateMutability":"payable"},{"type":"function","name":"MAX_FEE_BPS","inputs":[],"outputs":[{"name":"","type":"uint256","internalType":"uint256"}],"stateMutability":"view"},{"type":"function","name":"admin","inputs":[],"outputs":[{"name":"","type":"address","internalType":"address"}],"stateMutability":"view"},{"type":"function","name":"bestAsks","inputs":[{"name":"","type":"uint256","internalType":"uint256"}],"outputs":[{"name":"","type":"uint16","internalType":"uint16"}],"stateMutability":"view"},{"type":"function","name":"bestBids","inputs":[{"name":"","type":"uint256","internalType":"uint256"}],"outputs":[{"name":"","type":"uint16","internalType":"uint16"}],"stateMutability":"view"},{"type":"function","name":"cancelOrder","inputs":[{"name":"matchId","type":"uint256","internalType":"uint256"},{"name":"orderId","type":"uint64","internalType":"uint64"},{"name":"","type":"uint16","internalType":"uint16"}],"outputs":[],"stateMutability":"nonpayable"},{"type":"function","name":"claim","inputs":[{"name":"matchId","type":"uint256","internalType":"uint256"}],"outputs":[],"stateMutability":"nonpayable"},{"type":"function","name":"clearGarbage","inputs":[{"name":"matchId","type":"uint256","internalType":"uint256"},{"name":"isBuy","type":"bool","internalType":"bool"},{"name":"price","type":"uint16","internalType":"uint16"},{"name":"maxOrders","type":"uint256","internalType":"uint256"}],"outputs":[],"stateMutability":"nonpayable"},{"type":"function","name":"createMatch","inputs":[],"outputs":[{"name":"","type":"uint256","internalType":"uint256"}],"stateMutability":"nonpayable"},{"type":"function","name":"feeBps","inputs":[],"outputs":[{"name":"","type":"uint256","internalType":"uint256"}],"stateMutability":"view"},{"type":"function","name":"marketMaker","inputs":[],"outputs":[{"name":"","type":"address","internalType":"address"}],"stateMutability":"view"},{"type":"function","name":"matches","inputs":[{"name":"","type":"uint256","internalType":"uint256"}],"outputs":[{"name":"status","type":"uint8","internalType":"enum GoldClob.MatchStatus"},{"name":"winner","type":"uint8","internalType":"enum GoldClob.Side"},{"name":"yesPool","type":"uint256","internalType":"uint256"},{"name":"noPool","type":"uint256","internalType":"uint256"}],"stateMutability":"view"},{"type":"function","name":"nextMatchId","inputs":[],"outputs":[{"name":"","type":"uint256","internalType":"uint256"}],"stateMutability":"view"},{"type":"function","name":"nextOrderId","inputs":[],"outputs":[{"name":"","type":"uint64","internalType":"uint64"}],"stateMutability":"view"},{"type":"function","name":"orderQueues","inputs":[{"name":"matchId","type":"uint256","internalType":"uint256"},{"name":"isBuy","type":"bool","internalType":"bool"},{"name":"price","type":"uint16","internalType":"uint16"}],"outputs":[{"name":"head","type":"uint64","internalType":"uint64"},{"name":"tail","type":"uint64","internalType":"uint64"}],"stateMutability":"view"},{"type":"function","name":"orders","inputs":[{"name":"","type":"uint64","internalType":"uint64"}],"outputs":[{"name":"id","type":"uint64","internalType":"uint64"},{"name":"price","type":"uint16","internalType":"uint16"},{"name":"isBuy","type":"bool","internalType":"bool"},{"name":"maker","type":"address","internalType":"address"},{"name":"amount","type":"uint128","internalType":"uint128"},{"name":"filled","type":"uint128","internalType":"uint128"},{"name":"matchId","type":"uint256","internalType":"uint256"}],"stateMutability":"view"},{"type":"function","name":"placeOrder","inputs":[{"name":"matchId","type":"uint256","internalType":"uint256"},{"name":"isBuy","type":"bool","internalType":"bool"},{"name":"price","type":"uint16","internalType":"uint16"},{"name":"amount","type":"uint256","internalType":"uint256"}],"outputs":[],"stateMutability":"payable"},{"type":"function","name":"positions","inputs":[{"name":"","type":"uint256","internalType":"uint256"},{"name":"","type":"address","internalType":"address"}],"outputs":[{"name":"yesShares","type":"uint256","internalType":"uint256"},{"name":"noShares","type":"uint256","internalType":"uint256"}],"stateMutability":"view"},{"type":"function","name":"resolveMatch","inputs":[{"name":"matchId","type":"uint256","internalType":"uint256"},{"name":"winner","type":"uint8","internalType":"enum GoldClob.Side"}],"outputs":[],"stateMutability":"nonpayable"},{"type":"function","name":"setFeeConfig","inputs":[{"name":"tradeTreasuryFeeBps_","type":"uint256","internalType":"uint256"},{"name":"tradeMarketMakerFeeBps_","type":"uint256","internalType":"uint256"},{"name":"winningsMarketMakerFeeBps_","type":"uint256","internalType":"uint256"}],"outputs":[],"stateMutability":"nonpayable"},{"type":"function","name":"tradeMarketMakerFeeBps","inputs":[],"outputs":[{"name":"","type":"uint256","internalType":"uint256"}],"stateMutability":"view"},{"type":"function","name":"tradeTreasuryFeeBps","inputs":[],"outputs":[{"name":"","type":"uint256","internalType":"uint256"}],"stateMutability":"view"},{"type":"function","name":"treasury","inputs":[],"outputs":[{"name":"","type":"address","internalType":"address"}],"stateMutability":"view"},{"type":"function","name":"winningsMarketMakerFeeBps","inputs":[],"outputs":[{"name":"","type":"uint256","internalType":"uint256"}],"stateMutability":"view"},{"type":"event","name":"FeeConfigUpdated","inputs":[{"name":"tradeTreasuryFeeBps","type":"uint256","indexed":false,"internalType":"uint256"},{"name":"tradeMarketMakerFeeBps","type":"uint256","indexed":false,"internalType":"uint256"},{"name":"winningsMarketMakerFeeBps","type":"uint256","indexed":false,"internalType":"uint256"}],"anonymous":false},{"type":"event","name":"MatchCreated","inputs":[{"name":"matchId","type":"uint256","indexed":true,"internalType":"uint256"}],"anonymous":false},{"type":"event","name":"MatchResolved","inputs":[{"name":"matchId","type":"uint256","indexed":true,"internalType":"uint256"},{"name":"winner","type":"uint8","indexed":false,"internalType":"enum GoldClob.Side"}],"anonymous":false},{"type":"event","name":"OrderCancelled","inputs":[{"name":"matchId","type":"uint256","indexed":true,"internalType":"uint256"},{"name":"orderId","type":"uint64","indexed":true,"internalType":"uint64"}],"anonymous":false},{"type":"event","name":"OrderMatched","inputs":[{"name":"matchId","type":"uint256","indexed":true,"internalType":"uint256"},{"name":"makerOrderId","type":"uint64","indexed":false,"internalType":"uint64"},{"name":"takerOrderId","type":"uint64","indexed":false,"internalType":"uint64"},{"name":"matchedAmount","type":"uint256","indexed":false,"internalType":"uint256"},{"name":"price","type":"uint16","indexed":false,"internalType":"uint16"}],"anonymous":false},{"type":"event","name":"OrderPlaced","inputs":[{"name":"matchId","type":"uint256","indexed":true,"internalType":"uint256"},{"name":"orderId","type":"uint64","indexed":true,"internalType":"uint64"},{"name":"maker","type":"address","indexed":true,"internalType":"address"},{"name":"isBuy","type":"bool","indexed":false,"internalType":"bool"},{"name":"price","type":"uint16","indexed":false,"internalType":"uint16"},{"name":"amount","type":"uint256","indexed":false,"internalType":"uint256"}],"anonymous":false},{"type":"error","name":"FailedCall","inputs":[]},{"type":"error","name":"InsufficientBalance","inputs":[{"name":"balance","type":"uint256","internalType":"uint256"},{"name":"needed","type":"uint256","internalType":"uint256"}]},{"type":"error","name":"ReentrancyGuardReentrantCall","inputs":[]}],"bytecode":{"object":"0x60e0346101e857601f61214838819003918201601f19168301916001600160401b038311848410176101ec5780849260409485528339810103126101e857610052602061004b83610200565b9201610200565b60017f9b779b17422d0df92223018b32b4d1fa46e071723d6817e2486d003becc55f008190556003819055600580546001600160401b0319169091179055906001600160a01b038116156101a3576001600160a01b038216156101545760805260a0523360c05260645f55606460015560c86002557f7db0317b48d5cfa60fe5406abab969900e8dfb1ecbe177a05af0595780cb85c76060604051606481526064602082015260c86040820152a1604051611f33908161021582396080518181816107c20152610d05015260a051818181610ccc0152818161168d0152611af4015260c05181818161013a0152818161049b015281816117e501526119400152f35b60405162461bcd60e51b815260206004820152602160248201527f496e76616c6964206d61726b6574206d616b6572207a65726f206164647265736044820152607360f81b6064820152608490fd5b60405162461bcd60e51b815260206004820152601d60248201527f496e76616c6964207472656173757279207a65726f20616464726573730000006044820152606490fd5b5f80fd5b634e487b7160e01b5f52604160045260245ffd5b51906001600160a01b03821682036101e85756fe608080604052600436101561001c575b50361561001a575f80fd5b005b5f3560e01c9081631f21f9af14611ae2575080631fc6f9ad1461192057806320d54ecf146117bf57806324a9d853146117975780632a58b330146117715780632ebe714f14611754578063379607f5146115d3578063442c28b9146115565780634768d4ef146114f35780634befb861146107f157806361d027b3146107ad578063830be3381461079057806385489dc8146107745780639fa5d00f1461059e578063a0cc641a14610485578063a469dffa146103eb578063b5193050146103bd578063c52352411461022c578063c5adf7c91461020f578063d55be8c6146101f3578063e0773d11146101c5578063e684d7181461016d5763f851a44014610125575f61000f565b34610169575f366003190112610169576040517f00000000000000000000000000000000000000000000000000000000000000006001600160a01b03168152602090f35b5f80fd5b34610169576040366003190112610169576024356001600160a01b0381168103610169576004355f52600760205260405f209060018060a01b03165f526020526040805f206001815491015482519182526020820152f35b34610169576020366003190112610169576004355f526009602052602061ffff60405f205416604051908152f35b34610169575f3660031901126101695760206040516127108152f35b34610169575f366003190112610169576020600354604051908152f35b346101695761023a36611b52565b91610243611cbc565b835f526004602052610267600160ff60405f20541661026181611b34565b14611c08565b835f52600860205260405f20905f146103b5576001905b60ff82165f5260205260405f2061ffff83165f5260205260405f20925f9060018501915b85546001600160401b038082169160401c168110806103ac575b1561039f576001600160401b03165f52826020526001600160401b0360405f2054165f526006602052600160405f2001546001600160801b0381169060801c10155f146103845761037f90875f52600860205260405f2060ff86165f5260205260405f2061ffff87165f5260205260405f206001600160401b0380825416165f526001810160205260405f206001600160401b031981541690556001600160401b0361036a81835416611d77565b166001600160401b0319825416179055611c8f565b6102a2565b505050505050505b60015f516020611ede5f395f51905f5255005b505050505050505061038c565b508282106102bc565b60029061027e565b34610169576020366003190112610169576004355f52600a602052602061ffff60405f205416604051908152f35b34610169576020366003190112610169576004356001600160401b038116809103610169575f52600660205260e060405f208054906002600182015491015490604051926001600160401b038116845261ffff8160401c16602085015260ff8160501c161515604085015260018060a01b039060581c1660608401526001600160801b038116608084015260801c60a083015260c0820152f35b34610169575f366003190112610169576104c9337f00000000000000000000000000000000000000000000000000000000000000006001600160a01b031614611b84565b60206003546104d781611c8f565b6003556104e2611c9d565b6001815260028382015f8152604083015f815261053b60608501925f8452865f526004885260405f20955161051681611b34565b61051f81611b34565b60ff801988541691161786555161053581611b34565b85611bbc565b51600184015551910155805f526009825260405f2061ffff198154169055805f52600a825260405f206103e861ffff1982541617905560405190807f029c42c1ae2efa2f406e0681e1f940dde3568cd96a1ecf3715dc1191f0d3edbc5f80a28152f35b3461016957606036600319011261016957600435602435906001600160401b038216809203610169576105cf611b23565b506105d8611cbc565b5f828152600660205260409020805460581c6001600160a01b03163303610743578160028201540361071057600181018054906001600160801b038260801c9216808310156106da576103e89361065d826001600160801b036106416106789761ffff96611c45565b1694906001600160801b0382549181199060801b169116179055565b5460ff8160501c165f146106c75760401c81165b1690611be8565b04806106b7575b507f051c886b3e3b1ec09c73063f845a2f371275fb3d788914ead98645e3996962e25f80a360015f516020611ede5f395f51905f5255005b6106c19033611e66565b8261067f565b816106d59160401c16611c65565b610671565b60405162461bcd60e51b815260206004820152600e60248201526d105b1c9958591e48199a5b1b195960921b6044820152606490fd5b60405162461bcd60e51b815260206004820152600b60248201526a0aee4dedcce40dac2e8c6d60ab1b6044820152606490fd5b60405162461bcd60e51b81526020600482015260096024820152682737ba1036b0b5b2b960b91b6044820152606490fd5b34610169575f3660031901126101695760205f54604051908152f35b34610169575f366003190112610169576020600254604051908152f35b34610169575f366003190112610169576040517f00000000000000000000000000000000000000000000000000000000000000006001600160a01b03168152602090f35b6107fa36611b52565b91610806939193611cbc565b815f526004602052610824600160ff60405f20541661026181611b34565b61ffff84161515806114e4575b156114af578215611479576001600160801b0383116114425760405160a081018181106001600160401b03821117610fff576040525f81525f602082015260408101945f8652606082015f81525f6080840152835f1461142e5761089a61ffff835b1687611be8565b6103e881066113e9576103e88104808552156113b5576108d36298968091826108c45f5483611be8565b04602087015260015490611be8565b0487526108f16108e98451602086015190611bdb565b885190611bdb565b808252341061136657610905905134611bfb565b60808301526005546001600160401b031691831561107057610925611cf4565b95855f52600a60205261ffff60405f2054169087526020870152604086019660018060a01b033316945b875115158061105a575b80611047575b8061103c575b15610c2657865f52600860205260405f2060025f5260205260405f2061ffff8060208b015116165f5260205260405f208054906001600160401b038083169260401c168214610bed576001600160401b03600192165f52016020526001600160401b0360405f205416805f5260066020528760405f206109ec60ff825460501c1615611d14565b8760018201938c85546001600160801b0381169060801c1015610bd3577fe00b64442e6da2ddd996fa6a905bea76c618c548d19fa4fa3364fadb293cefe593818d610b4d9351926001600160801b0380610a4e8c548060801c93849116611c45565b16808611610bc9575b509161ffff9391610aa0610a776020956001600160801b03891690611d57565b8d546001600160801b031660809190911b6fffffffffffffffffffffffffffffffff1916178d55565b610aab868451611bfb565b83525f8b8152600785526040808220925460581c6001600160a01b03168252918552206001018054610ade908790611bdb565b9055895f526007835260405f20905f52825260405f20610aff858254611bdb565b90558d838383015116908185821611610b8d575b50500151169060405194859485929361ffff9195946001600160401b03606094816080880199168752166020860152604085015216910152565b0390a2546001600160801b0381169060801c14610b76575b610b6f8951611c8f565b895261094f565b610b8861ffff60208a01511688611e06565b610b65565b84610b9e6103e893610ba593611c79565b1686611be8565b0480610bb2575b8e610b13565b610bc160608301918251611bdb565b90525f610bac565b945061ffff610a57565b915050610b65935061ffff92506020915001511688611e06565b505061ffff60208901511661ffff8114610c125760010161ffff16602089015261094f565b634e487b7160e01b5f52601160045260245ffd5b935094965094909250945b81156110135761ffff602087015116815f52600a60205261ffff60405f20911661ffff198254161790555b85519081610d38575b505050506060608093015190602083015180610cff575b505180610cc6575b5080610cb6575b50015180610ca65760015f516020611ede5f395f51905f5255005b610cb09033611e66565b8061038c565b610cc09033611e66565b82610c8b565b610cf9907f00000000000000000000000000000000000000000000000000000000000000006001600160a01b0316611e66565b83610c84565b610d32907f00000000000000000000000000000000000000000000000000000000000000006001600160a01b0316611e66565b84610c7c565b60059692939654906001600160401b038216916001600160401b03610d5c84611d77565b16906001600160401b031916176005556040519260e084018481106001600160401b03821117610fff57604052828452602084019861ffff81168a52604085019487159a8b15968781526060830133815260808401916001600160801b038716835260a08501915f835260c08601948986528a5f52600660205260405f2096516001600160401b03166001600160401b03166001600160401b0319885416178755519186549060ff60501b9051151560501b1691600160581b600160f81b03905160581b169260401b69ffff0000000000000000169060ff60f81b6001600160401b03011617171784556001840191516001600160801b03166001600160801b0319835416178255516001600160801b0316610e8c91906001600160801b0382549181199060801b169116179055565b519060020155825f52600860205260405f2090875f149a60609861ffff9360809d610ff65760ff60015b165f5260205260405f208484165f5260205260405f206001600160401b0380825460401c16165f526001810160205260405f206001600160401b0389166001600160401b0319825416179055805467ffffffffffffffff60401b610f256001600160401b038360401c16611d77565b60401b169067ffffffffffffffff60401b191617905580610fdd575b15610f9d5750835f52600960205260405f2082821683198254161790555b60405195865216602085015260408401527fcf3f5c02856f5aa6ecb3ef9dde51876fbc40cfc4dd36c4e69407d11c1a8cbae0853394a4938580610c65565b80610fc4575b15610f5f57835f52600a60205260405f208282168319825416179055610f5f565b50835f52600a6020528160405f20541682821610610fa3565b50845f5260096020528260405f20541683831611610f41565b60ff6002610eb6565b634e487b7160e01b5f52604160045260245ffd5b61ffff602087015116815f52600960205261ffff60405f20911661ffff19825416179055610c5c565b506064895110610965565b506103e861ffff60208a0151161061095f565b5061ffff841661ffff60208a0151161115610959565b90611079611cf4565b91855f52600960205261ffff60405f20541696835260208301968752604083019760018060a01b033316955b8451151580611353575b80611345575b8061133a575b1561132b57875f52600860205260405f2060015f5260205260405f2061ffff808b5116165f5260205260405f208054906001600160401b038083169260401c16821461130f576001600160401b03600192165f52016020526001600160401b0360405f205416805f526006602052888a8860405f209361114160ff865460501c16611d14565b8b60018601958b87546001600160801b0381169060801c10156112f8577fe00b64442e6da2ddd996fa6a905bea76c618c548d19fa4fa3364fadb293cefe595611278936001600160801b0393835193856111a38d548060801c98899116611c45565b168086116112ee575b506111c8610a7786976001600160801b0361ffff981690611d57565b6111d3868251611bfb565b90525f8a8152600760209081526040808320935460581c6001600160a01b03168352929052208054611206908690611bdb565b9055885f52600760205260405f20905f52602052600160405f200161122c848254611bdb565b90558d8d8383511684821681116112b5575b50505051169060405194859485929361ffff9195946001600160401b03606094816080880199168752166020860152604085015216910152565b0390a2546001600160801b0381169060801c146112a1575b61129a8a51611c8f565b8a526110a5565b6112b061ffff8a511689611d94565b611290565b84610b9e6103e8936112c693611c79565b0490816112d6575b908e9061123e565b60606112e59101918251611bdb565b90525f8e6112ce565b94506111c86111ac565b5050505050611290925061ffff9150511689611d94565b505061ffff8951168015610c12575f190161ffff1689526110a5565b94509597509550925094610c31565b5060648a51106110bb565b5061ffff89511615156110b5565b5061ffff841661ffff8a511610156110af565b60405162461bcd60e51b815260206004820152602160248201527f496e73756666696369656e74206e61746976652063757272656e63792073656e6044820152601d60fa1b6064820152608490fd5b60405162461bcd60e51b815260206004820152600c60248201526b436f737420746f6f206c6f7760a01b6044820152606490fd5b60405162461bcd60e51b815260206004820152601c60248201527f416d6f756e742f507269636520707265636973696f6e206572726f72000000006044820152606490fd5b61089a61ffff61143d84611c65565b610893565b60405162461bcd60e51b815260206004820152600f60248201526e416d6f756e74206f766572666c6f7760881b6044820152606490fd5b60405162461bcd60e51b815260206004820152600e60248201526d125b9d985b1a5908185b5bdd5b9d60921b6044820152606490fd5b60405162461bcd60e51b815260206004820152600d60248201526c496e76616c696420707269636560981b6044820152606490fd5b506103e861ffff851610610831565b34610169576020366003190112610169576004355f526004602052608060405f2080549060ff8083169260081c169060026001820154910154916040519361153a81611b34565b845261154581611b34565b602084015260408301526060820152f35b346101695760603660031901126101695760243580151581036101695761157b611b23565b906004355f52600860205260405f20905f146115ca5760ff60015b165f5260205261ffff60405f2091165f526020526040805f20546001600160401b038251918181168352831c166020820152f35b60ff6002611596565b34610169576020366003190112610169576004356115ef611cbc565b805f526004602052600260ff60405f20541661160a81611b34565b03611720575f8181526007602090815260408083203384528252808320938352600490915281205490919060081c60ff1661164481611b34565b600181036116f8575090505f815491555b80156116c05761038c9061167961271061167160025484611be8565b048092611bfb565b9080611687575b5033611e66565b6116ba907f00000000000000000000000000000000000000000000000000000000000000006001600160a01b0316611e66565b82611680565b60405162461bcd60e51b815260206004820152601060248201526f4e6f7468696e6720746f20636c61696d60801b6044820152606490fd5b60029061170481611b34565b14611710575b50611655565b60019150015f815491558161170a565b60405162461bcd60e51b815260206004820152600c60248201526b139bdd081c995cdbdb1d995960a21b6044820152606490fd5b34610169575f366003190112610169576020600154604051908152f35b34610169575f3660031901126101695760206001600160401b0360055416604051908152f35b34610169575f3660031901126101695760206117b75f5460015490611bdb565b604051908152f35b3461016957604036600319011261016957600435602435600381101561016957611813337f00000000000000000000000000000000000000000000000000000000000000006001600160a01b031614611b84565b815f526004602052600160ff60405f20541661182e81611b34565b036118f05761183c81611b34565b6001811480156118dd575b156118a7575f828152600460209081526040909120805460ff191660021781557fde1c752173fee6bd3976fb1f165361c647fffc7a33987556b7f54b6a2de08ece9290611895908290611bbc565b604051906118a281611b34565b8152a2005b60405162461bcd60e51b815260206004820152600e60248201526d24b73b30b634b2103bb4b73732b960911b6044820152606490fd5b506118e781611b34565b60028114611847565b60405162461bcd60e51b81526020600482015260086024820152672737ba1037b832b760c11b6044820152606490fd5b346101695760603660031901126101695760443560243560043561196e337f00000000000000000000000000000000000000000000000000000000000000006001600160a01b031614611b84565b6127108111611a9d576127108211611a605761271061198d8383611bdb565b11611a1b5761271083116119de577f7db0317b48d5cfa60fe5406abab969900e8dfb1ecbe177a05af0595780cb85c792606092825f55806001558160025560405192835260208301526040820152a1005b60405162461bcd60e51b81526020600482015260156024820152740aed2dcdcd2dccee640cccaca40e8dede40d0d2ced605b1b6044820152606490fd5b60405162461bcd60e51b815260206004820152601860248201527f546f74616c2074726164652066656520746f6f206869676800000000000000006044820152606490fd5b60405162461bcd60e51b81526020600482015260156024820152740a8e4c2c8ca409a9a40cccaca40e8dede40d0d2ced605b1b6044820152606490fd5b60405162461bcd60e51b815260206004820152601b60248201527f54726164652074726561737572792066656520746f6f206869676800000000006044820152606490fd5b34610169575f366003190112610169577f00000000000000000000000000000000000000000000000000000000000000006001600160a01b03168152602090f35b6044359061ffff8216820361016957565b60031115611b3e57565b634e487b7160e01b5f52602160045260245ffd5b608090600319011261016957600435906024358015158103610169579060443561ffff81168103610169579060643590565b15611b8b57565b60405162461bcd60e51b81526020600482015260096024820152682737ba1030b236b4b760b91b6044820152606490fd5b90611bc681611b34565b61ff0082549160081b169061ff001916179055565b91908201809211610c1257565b81810292918115918404141715610c1257565b91908203918211610c1257565b15611c0f57565b60405162461bcd60e51b815260206004820152600e60248201526d26b0ba31b4103737ba1037b832b760911b6044820152606490fd5b906001600160801b03809116911603906001600160801b038211610c1257565b61ffff166103e8039061ffff8211610c1257565b9061ffff8091169116039061ffff8211610c1257565b5f198114610c125760010190565b60405190608082018281106001600160401b03821117610fff57604052565b60025f516020611ede5f395f51905f525414611ce55760025f516020611ede5f395f51905f5255565b633ee5aeb560e01b5f5260045ffd5b611cfc611c9d565b905f82525f60208301525f60408301525f6060830152565b15611d1b57565b60405162461bcd60e51b8152602060048201526014602482015273145d595d59481cda59194818dbdc9c9d5c1d195960621b6044820152606490fd5b906001600160801b03809116911601906001600160801b038211610c1257565b6001600160401b03166001600160401b038114610c125760010190565b5f52600860205260405f2060015f5260205261ffff60405f2091165f5260205260405f206001600160401b0380825416165f526001810160205260405f206001600160401b031981541690556001600160401b03611df481835416611d77565b166001600160401b0319825416179055565b5f52600860205260405f2060025f5260205261ffff60405f2091165f5260205260405f206001600160401b0380825416165f526001810160205260405f206001600160401b031981541690556001600160401b03611df481835416611d77565b814710611ec65760405160208101908082106001600160401b03831117610fff575f9384938480949381946040525260018060a01b03165af115611ea657565b3d15611eb7576040513d5f823e3d90fd5b63d6bda27560e01b5f5260045ffd5b504763cf47918160e01b5f5260045260245260445ffdfe9b779b17422d0df92223018b32b4d1fa46e071723d6817e2486d003becc55f00a2646970667358221220080f296ae33eaa7cc17285944569018f3522ea271d97014f58cbec8a04183cbb64736f6c63430008210033","linkReferences":{}},"methodIdentifiers":{"MAX_FEE_BPS()":"d55be8c6","admin()":"f851a440","bestAsks(uint256)":"b5193050","bestBids(uint256)":"e0773d11","cancelOrder(uint256,uint64,uint16)":"9fa5d00f","claim(uint256)":"379607f5","clearGarbage(uint256,bool,uint16,uint256)":"c5235241","createMatch()":"a0cc641a","feeBps()":"24a9d853","marketMaker()":"1f21f9af","matches(uint256)":"4768d4ef","nextMatchId()":"c5adf7c9","nextOrderId()":"2a58b330","orderQueues(uint256,bool,uint16)":"442c28b9","orders(uint64)":"a469dffa","placeOrder(uint256,bool,uint16,uint256)":"4befb861","positions(uint256,address)":"e684d718","resolveMatch(uint256,uint8)":"20d54ecf","setFeeConfig(uint256,uint256,uint256)":"1fc6f9ad","tradeMarketMakerFeeBps()":"2ebe714f","tradeTreasuryFeeBps()":"85489dc8","treasury()":"61d027b3","winningsMarketMakerFeeBps()":"830be338"},"id":0}